S0120000736F635F69626561636F6E2E7333376D
S21400600000080020116400000F6400000F64000008
S214006010E57A00000F6400000F6400000F640000C3
S2140060200F6400000F6400000F6400000F6400009F
S2140060300F640000B0A602000F6400000F640000AA
S2140060400F6400000F6400000F6400000F6400007F
S2140060500F6400000F6400000F6400000F6400006F
S2140060600F6400000F6400000F6400000F6400005F
S214006070A18700000F6400000F6400000F6400009A
S2140060800F6400000F6400000F6400000F6400003F
S2140060900F6400000F6400000F6400000F6400002F
S2140060A00F6400000F6400000F6400000F6400001F
S2140060B00F640000699402000F640000699F0200EC
S2140060C0199F0200159F020035960200659F020088
S2140060D01D9F02003D9F0200219F0200C59F0200F7
S2140060E0757B0200217D0200AD9F02000F64000058
S2140060F00F6400000F6400000F6400000F640000CF
S2140061000F6400000F6400000F6400000F640000BE
S2140061100F6400000F6400000F6400000F640000AE
S2140061200F6400000F6400000F6400000F6400009E
S2140061300F6400000F6400000F6400000F6400008E
S21400614010B5054C237833B9044B13B1044800E06E
S21400615000BF0123237010BD240B002000000000A8
S2140061609CF0020008B5034B1BB10349034800E04E
S21400617000BF08BD00000000280B00209CF00200B5
S214006180154B002B08BF134B9D46A3F5803A002104
S2140061908B460F461348144A121A24F082F90F4B06
S2140061A0002B00D098470E4B002B00D098470020BD
S2140061B0002104000D000D48002802D00C4800E025
S2140061C000BF24F007F92000290000F05DF824F055
S2140061D0EDF800BF000008000008002000000000E6
S2140061E000000000240B002078250020000000009E
S2140061F0000000007047704770B503681F4A23F41C
S2140062007F4323F0070393428CB035D10DF10E0186
S21400621000201AF0ABFF00B1FEE704AC2646184A91
S21400622002F11803254610685168083203C59A42E1
S2140062302C46F7D110689388124C2860AB80204615
S2140062401AF0F6FE014600B1FEE733461E2220781D
S2140062501AF03EFF034600B1FEE7A0222078114662
S21400626000931AF00BFF024600B1FEE704212078E7
S2140062701AF05AFF00B1FEE70CB070BDA000010096
S21400628090A602000008002008B502F0A6FAFFF764
S214006290B1FF02F0AFFAFFF7AEFF01F05BFDF8E7E3
S2140062A008B50B4808F078FD1AF0B4FE1AF06AFE3E
S2140062B01AF083FE1AF09CFE1AF06DFE1AF086FEA7
S2140062C01AF08DFE1AF070FEBDE808401AF099BE6E
S2140062D0B0A802000120704700B54FF48270C3B02A
S2140062E0FFF7F8FF30B101A81AF09DFE10B901A81B
S2140062F0FFF782FF43B05DF804FB08B5032180205A
S21400630000F04CFE09214FF4C06000F047FE092162
S2140063104FF4F06000F042FE09213E2000F03EFE01
S21400632009212D2000F03AFE002008BD134B10B5C1
S2140063301B68C3F30743012B10D1114B4FF4802287
S214006340596E41F2640049034FF0040458BF42F20C
S21400635064011A500B48046058BF5A5001F0BAFA4C
S21400636001F0DAFA01F006FBFFF7C7FF01F0C2FA08
S21400637000F0FEF8BDE8104001F00CBC0080E00F15
S2140063800080004020200140704708B501F086FFDD
S21400639006F091FCBDE8084001F004BB08B501F02A
S2140063A093FABDE80840FFF77BBF70477047704719
S2140063B0FFF792BF7047012070470120704710B565
S2140063C008F0C8FC0446FFF7F6FF002814BF204676
S2140063D0002010BD38B502F02BF9044608F0C8FCC2
S2140063E0042810D002284FF0000508BF0124FFF74C
S2140063F0E4FF042809D0022808BF0124002D18BF96
S2140064000024204638BD0125F1E70024F9E7FEE721
S21400641008B500F013F8064A064B07498B4201D32D
S214006420FFF7AEFE52F8040F43F8040BF6E700BF82
S214006430A0F0020000080020240B0020044B054AB0
S2140064409A60D3F8882042F47002C3F88820704718
S21400645000ED00E000600000084B1B6F03F0070330
S214006460022B04D0032B05D0012B05D0FEE7044BEE
S21400647018687047034BFBE70348704700800040EE
S2140064801408002018080020002D310108B5FFF779
S214006490E3FF054B1B6FC3F303330133B0FBF3F08D
S2140064A0024B186008BD00BF0080004010080020A6
S2140064B00048704700B4C404014B1868704700BF1A
S2140064C018080020054B1860054B1B6F03F00703E8
S2140064D0032B01D1FFF7DABF704700BF1808002072
S2140064E000800040014B1868704700BF1408002069
S2140064F00020704700487047002D31014FF40040DF
S21400650070474FF47A707047014B1868704700BFA9
S2140065101C08002028231B68B3F5C04F03D2196857
S214006520064A914203D0002303708360704701221D
S21400653002709A689B694260F7E700BF07B0CD5EBD
S21400654000230360704703680B600160704700001B
S214006550054A06491368184488428CBF4FF0FF333B
S21400656010601846704700BF2008002000800020FA
S214006570024B1968024B186807F0B0BE28080020C6
S214006580240800207047002310B59A4201D100204D
S21400659010BD50F8234041F823400133F5E70000D2
S2140065A070B59400224605460E4624F069F8431C52
S2140065B002D018B1064800E0064870BD22463146B3
S2140065C0284623F03BFF0028034808BF0020F4E7D6
S2140065D024E000F021E000F010E000F013B50446DF
S2140065E001A801F091F89DF80630012223804FF4AF
S2140065F0807300206380054B9B680A3303F01F03FB
S21400660002FA03F3636002B010BD00BF0080E00F23
S21400661000F0F2BF08B500F0DBFF002008BD000068
S21400662010B5044624F01CF8431C02D018B10C48E0
S21400663000E00C4810BD0C4B20469B680A3303F064
S2140066401F020123934023F003032344984201D101
S2140066500020EFE750F8042B0132F7D00348E9E7B3
S21400666024E000F021E000F00080E00F0EE000F0F3
S21400667008B500F0D3FD014B186008BD901F002040
S214006680014B186800F0CEBD901F00200A46013965
S214006690014401F0D7B90000054A1368DB06FCD4B4
S2140066A04FF04023D3F88400C0F38110704700BF3A
S2140066B08440004038B5104B0546D3F820310C46D0
S2140066C003F00303022B0BD0032B0DD0012B0FD1AD
S2140066D0FFF708FF052305B1286004B1237038BD15
S2140066E0FFF7EAFE0323F6E7FFF704FF0223F2E7CD
S2140066F000231846EFE700BF0080004073B50D4644
S21400670000210E4B0191D3F88041064604F00304A5
S214006710012C08D0022C0BD00EB1019B336005B1C2
S214006720297002B070BD01A8FFF7C4FF0D21F3E782
S214006730FFF7E0FE21460190EEE700BF0080004034
S21400674038B5174B0546D3F824310C4603F007033B
S214006750013B052B20D8DFE803F0030F171B0B13B4
S214006760FFF7C0FE052305B1286004B1237038BDCD
S214006770FFF7B8FE0623F6E7FFF79EFE0323F2E7D1
S214006780FFF79AFE0423EEE7FFF7B4FE0223EAE7DC
S214006790FFF7AEFE0723E6E700231846E3E700BF51
S2140067A00080004038B5104B0546D3F840310C4603
S2140067B003F00303022B0BD0032B0DD0012B0FD1BC
S2140067C0FFF79CFE092305B1286004B1237038BD8D
S2140067D0FFF79AFE0823F6E7FFF793FE0A23F2E791
S2140067E000231846EFE700BF0080004038B5134B83
S2140067F00546D3F800320C4603F00703013B032B93
S21400680018D8DFE803F0020A0E12FFF777FE092316
S21400681005B1286004B1237038BDFFF775FE082364
S214006820F6E7FFF76EFE0A23F2E7FFF72FFE0C23CC
S214006830800AEDE700231846EAE700BF0080004024
S21400684038B5104B0546D3F840320C4603F0030328
S214006850022B0BD0032B0DD0012B0FD1FFF74EFED2
S214006860092305B1286004B1237038BDFFF74CFE3C
S2140068700823F6E7FFF745FE0A23F2E7002318464B
S214006880EFE700BF0080004038B5104B0546D3F850
S21400689060310C4603F00303022B0BD0032B0DD004
S2140068A0012B0FD1FFF72AFE092305B1286004B19A
S2140068B0237038BDFFF728FE0823F6E7FFF721FE12
S2140068C00A23F2E700231846EFE700BF00800040E7
S2140068D00D4B10B4D3F820320A4603F00303012B05
S2140068E00AD0022B0CD008B1002303600AB10023A3
S2140068F013705DF8044B70475DF8044BFFF7DABE83
S2140069005DF8044BFFF74EBF00800040430910B50A
S21400691007D0012B0FD00A4C0A4A022B14BF23467D
S214006920134600F01F0041B103F58053012202FA1E
S21400693000F0186010BD044BF3E703F50053F5E7CD
S214006940608200406880004064800040B0F5007FB0
S21400695018D005D880B1B0F5C07F0DD000200FE06C
S214006960B0F5207F14D0B0F5607FF7D10B4BD3F88D
S2140069708000C0F3011003E0084B186FC0F303302B
S21400698001307047054BD3F89000C0F30460F7E77A
S214006990024B186FC0F38020F2E700BF0080004073
S2140069A0002313B53E280446019300F0B18042D878
S2140069B02B2828D01FD8232813D00CD8202849D01D
S2140069C004D8002846D0019802B010BD212808D06F
S2140069D022283FD0F7E7292800F290802828C0F028
S2140069E08380FFF753FD02464FF42070FFF7AEFF9B
S2140069F0B2FBF0F071E0312810D82F28F1D22D2804
S214006A0000F0818056D9FFF741FD02464FF4207012
S214006A10FFF79CFFB2FBF0F040085EE03C2855D83C
S214006A203A28DED2382864D03928CCD1002101A8F3
S214006A30FFF786FEC7E7B0F5007F50D01BD8522878
S214006A4052D00AD84D2805D002D83F28C9D0BAE778
S214006A504F28B8D3FFF71AFD3FE080283BD004D874
S214006A60A0F16004012CF5D9ADE7B0F5807F21D008
S214006A70B0F5C07FADE7B0F5A06F3AD010D8B0F54E
S214006A80607F2CD006D8B0F5207FAAD0B0F5407F26
S214006A90B9D098E7B0F5806F26D0B0F5906FC4E710
S214006AA0B0F5D06F2FD00AD8B0F5B06F26D0B0F5BD
S214006AB0C06F88D1002101A8FFF774FE83E7B0F508
S214006AC0E06F25D0B0F5F06F7FF47DAF002101A810
S214006AD0FFF7DAFE77E7FFF7BFFC019073E7FFF7F3
S214006AE0BBFC0246204681E7002101A8FFF7E2FD35
S214006AF069E7002101A8FFF7EBFE64E7002101A883
S214006B00FFF7FCFD5FE7002101A8FFF76FFE5AE7DD
S214006B10002101A8FFF794FE55E7000008B5802085
S214006B20FFF73EFF044B98429FBF42F270034FF4BC
S214006B308031024AD15008BD005A620200800040EF
S214006B4038B5054641F268034FF400300D4AD05080
S214006B500020FFF7FBFE41F671320B4B6843DC6901
S214006B600A4DDA639A68A84204F4803422F440128C
S214006B7003D9012918BF42F480129A600CB1002292
S214006B80DA6338BD0080004000000340005A62020D
S214006B9008B5FFF78DFCBDE808400021FFF7D0BF21
S214006BA0002307B5B0F5807F8DF8073011D030D8B8
S214006BB02D2800F0828012D82A2841D007D8243801
S214006BC0032831D99DF8070003B05DF804FB2C2894
S214006BD0F8D10DF107010020FFF7E4FDF2E73D28AC
S214006BE05FD007D83828EDD10DF107010020FFF758
S214006BF06FFEE7E73E2833D08028E3D1374B1B6F84
S214006C0003F00703013B032BDCD8DFE803F048441E
S214006C104262B0F5C06FDCD018D8B0F5906F46D0A1
S214006C2008D8B0F5806FCDD10DF107010020FFF731
S214006C3041FDC7E7B0F5A06FD6D0B0F5B06FC1D1B3
S214006C400DF107010020FFF759FDBBE7B0F5F06F27
S214006C5027D00BD8B0F5D06F2FD0B0F5E06FB1D1FC
S214006C600DF107010020FFF7EBFDABE7B0F5006F75
S214006C701DD0B0F5086FA5D1184BD3F8003103F03E
S214006C800303022B1FD0032B21D0012B23D1FFF7A8
S214006C9013FC032300E005238DF8073092E7022358
S214006CA0FAE70DF107010020FFF7EEFD8AE70DF188
S214006CB007010020FFF744FD84E70DF107010020DF
S214006CC0FFF794FD7EE7FFF71FFC0823E4E7FFF7D6
S214006CD00FFC0723E0E70123DEE700BF008000404B
S214006CE008B5FFF75DFF082804D0092805D04FF641
S214006CF0FF7001E0094B188808BD41F264034FF4A9
S214006D000011074A4FF6FF70D150064B5B6A13F02E
S214006D10010F18BF4FF4FA70EEE700BF48080020D6
S214006D200080004000400240F8B504468020FFF78F
S214006D3037FF032800F0858041F264034FF40021FA
S214006D40464AD15045F60E0302F58042C2F880301E
S214006D50022141F22803D15042F228030121D150EA
S214006D60916D11F48031FBD1637820781B0543EADE
S214006D700063A0793A4E0343E078657C43EA00431B
S214006D80207943EA0033607943EA80131361237A5B
S214006D90E0791B0643EA8063E07A0343607A43EABD
S214006DA00043A07A43EA00239361637B126A002BB8
S214006DB018BF0821207B22F00D0243EA020343EAB3
S214006DC0800341EA0301A37B31624FEA431CE37B65
S214006DD0207C4FEA0317314634D1B26A214B22F0A9
S214006DE0330242F0010242EA0C023A43B2628A6D72
S214006DF033EA0202FBD1022341F228028B50184AE2
S214006E000B65936D5B00FCD41169A37821F47001C7
S214006E1041EA0351116141F218034FF00041D1508D
S214006E2018B942F228030221D15025B942F22803AC
S214006E3001210B4AD150A37C1BB1094B0A4AC3F867
S214006E408020F8BDB36A23F033032B4343EA0C03D8
S214006E503B4343EA4003B362EDE700BF00800040D7
S214006E6000C0004003000140F1A7FFFF10B5044634
S214006E70FFF722FB41F264034FF40011094AD15098
S214006E800222094B5A609A6812F48032FBD1012C18
S214006E9018BF5A624FF0000208BF5C62024B5A608D
S214006EA010BD00BF00800040004002400029CCBF5B
S214006EB001210021FFF744BE10B50446FFF768FE27
S214006EC000F054F841F270034FF480310C4A013C54
S214006ED0D150106F20F4704040EA04301067FFF77E
S214006EE0D5FA0446FFF7D8FBC0F102012046FFF7AB
S214006EF0DDFF00F041F8BDE81040FFF70FBE00BF11
S214006F0000800040B0F5007F1AD004D850B1B0F52C
S214006F10C07F07D07047B0F5207F1CD0B0F5607FEB
S214006F2003D070470846FFF7C7BF0F4A0139D2F8AB
S214006F30803023F0300343EA0111C2F88010704716
S214006F40094A0139D2F8903023F0F85343EA016138
S214006F50C2F890107047044A0139136F23F4806317
S214006F6043EA8121116770470080004002214FF4F8
S214006F702070FFF7C7BF000008B54FF4C070FFF7DA
S214006F800FFDBDE80840044988428CBF022101215C
S214006F904FF42070FFF7B6BF80F0FA02B0F5807F9E
S214006FA070B50C460DD040D82D2800F0128119D8A7
S214006FB02A285DD003D82438032842D970BD2C284F
S214006FC0FCD1083CE4B2022C8CBF00218A4B8B4AD1
S214006FD098BF195DD2F8403123F003030B43C2F883
S214006FE04031EBE73D2800F0D28011D83828E5D1B3
S214006FF00D2C00F0FF800E2C0CBF022100217F4AD2
S214007000D2F8203223F003030B43C2F82032D5E730
S2140070103E2847D08028D1D18B1E052B00F2B480A5
S214007020DFE803F0AF9CB269B2ACB0F5C06FC8D071
S2140070302DD8B0F5906F00F0BB8013D8B0F5806FF8
S214007040BCD1023CE4B2032C8CBF00216C4B6B4AD3
S21400705098BF195DD2F8203123F003030B43C2F822
S2140070602031ABE7B0F5A06FC2D0B0F5B06FA5D1B8
S214007070022C03D0A4F10D035C425C415F4AD2F8B7
S214007080803123F003031C43C2F8804196E7B0F535
S214007090F06F7CD017D8B0F5D06F00F09A80B0F5BE
S2140070A0E06F8BD1083CE4B2022C8CBF0021554B1C
S2140070B0524A98BF195DD2F8403223F003030B43BF
S2140070C0C2F840327AE7B0F5006F71D0B0F5086FBD
S2140070D07FF474AFCC1EE4B2052C8CBF00214A4B63
S2140070E0464A98BF195DD2F8003123F003030B43DC
S2140070F0C2F8003162E7002502260121022000F0D6
S2140071003DF9FFF745FDFFF731FF4FF4803141F2BF
S21400711070033A4AD150136F23F0070333431367C3
S214007120FFF7B4F90646FFF7B7FAC0F1020130469A
S214007130FFF7BCFE0121002000F05CF9FFF71CFF02
S214007140FFF7ECFC002D7FF439AF032C7FF436AF4D
S21400715042F2280301212D4AD1502FE741F2640361
S2140071604FF40021254A0326D15041F2280201217E
S214007170264B9D6A9950C5F34005BEE700250426B8
S214007180BBE700250126B8E700252E46B5E7083CF4
S214007190E4B2022C8CBF00211D4B184A98BF195D23
S2140071A0D2F8603123F003030B43C2F8603105E7E1
S2140071B0023CE4B2052C8CBF0021164B0F4A98BF48
S2140071C0195DD2F8243123F007030B43C2F82431AB
S2140071D0F4E6083CE4B2042C8CBF00210E4B074AB0
S2140071E098BF195DD2F8003223F007030B43C2F8AC
S2140071F00032E3E6012102E708A902000080004011
S21400720004A9020008A9020016A9020000C0004056
S21400721008A902000BA9020011A90200EFF31080D2
S21400722072B6704700B962B67047EFF3108072B658
S2140072307047FFF7F7BF0000024B9B6803EB800028
S2140072400164704700ED00E0F0B50024059D9DF850
S21400725018709C4202D10C4B9A60F0BD37B18C423C
S2140072600ED250F8246042F8246005E08C4252F8B2
S214007270246003D2002EF4D00134EAE7002EFBD1BE
S21400728042F82450F8E700BF00ED00E010B5234BAD
S21400729070B9186041F264014FF40030204A505033
S2140072A020494968012902D1D2F800211A6010BD90
S2140072B01B68002BFBD01B4C6268012AF7D0184ACB
S2140072C08020C2F80031FFF76BFC052820D14FF470
S2140072D0C070FFF73BFB0128044604D102214FF49F
S2140072E0C070FFF70FFE42F2100207210D4B9950B7
S2140072F041F20402012199501A69D207FCD5012CEB
S214007300D5D12146BDE810404FF4C070FFF7FABD56
S21400731041F204030122E250C9E700BFA011002099
S2140073200080004000C0014010B5044610B10020A7
S214007330FFF7ACFF0C4A136943F00403136100F037
S21400734031FEFFF76BFF23F093F9FFF76BFF00F0BA
S2140073503BFE24B1BDE810400120FFF797BFBDE813
S2140073601040FFF793B800BF00ED00E0FFF7DCBF6A
S2140073700020FFF78BBF0120FFF788BF38B5044613
S2140073801A4A1368D806FCD44FF04023D3F884304A
S214007390C3F381139C4228D0FFF75EF8012C054604
S2140073A002D12146FFF782FDFFF738FF4FF000714C
S2140073B00F4A4FF0402311604FF48062611E8A40EE
S2140073C01A675A6E910103D4D3F88420920609D521
S2140073D0FFF728FF022C08D12846BDE838400021D8
S2140073E0FFF764BDD3F88420EBE738BD8440004047
S2140073F06460004010B50C4608B9FFF72DF8074B3F
S21400740021461B783BB1064B984204D80120BDE8C4
S2140074101040FFF7B3BF0220F9E700BFA411002019
S214007420005A62020278034B012100201A70FFF70F
S214007430E1BF00BFA41100204FF04022536F4178F7
S21400744023F4407343EA0123536770474FF040220A
S214007450D36E017923F030030B43D36670470000E8
S21400746041F264034FF00041164A10B5D15041F284
S214007470040101224AF6CD34134B5A50596C1C6451
S21400748078B942F208001A50DA6AD007FCD542F200
S214007490040201209850012902BF0B4B0B4A1A64C4
S2140074A010BDDA6A1207FCD442F22402202098505B
S2140074B041F2080201209850034A536A9B06FCD505
S2140074C0E9E700BF00800040004009403254FFFF5B
S2140074D038B54FF0004141F26403194A194CD150B7
S2140074E0012241F20403E2504AF6CD33656C236470
S2140074F04378934013434FF04022D363A3688278C7
S21400750023F0740343EA0213C278002A14BF04224D
S21400751000221343A3600279837943EA022323619E
S2140075204279C379007843EA02236361FFF798FF44
S214007530012D08BF044B4FF0010008BF236438BD7F
S21400754000800040004009403254FFFFF0B54AB1C9
S214007550012530241D4E8D4004FB00640BB341F220
S2140075601006A55130244443072904F1804404F54D
S214007570703419D80F2765688E00B74025EA0705CE
S21400758002FA06F63543656052B9012202FA01F1A5
S21400759030220E4C02FB0040A3B141F21003C15052
S2140075A0F0BD42F21006DCE70F2701F18045083DEA
S2140075B0E668AD00AF4026EA070602FA05F5354351
S2140075C0E560E1E742F21003E9E700BF00C00340D0
S2140075D041F268034FF40031054AD15041F671324A
S2140075E0044B0121DA6342F20C029950704700BF47
S2140075F0008000400000034041F67132074B012135
S214007600DA6342F20C02995000224FF40031DA633A
S21400761042F26803024AD150704700BF00000340A0
S214007620008000404FF090435A6812B19A6A002AD0
S214007630FAD17047CB784A7810B55B010C7843EAEC
S21400764082030A79234343EA02130C22424302F1DF
S21400765090421363012C02BF8A78024B43F8202025
S21400766010BD00BFE880034008B54FF090435A684D
S21400767002B960B15B680BB1FFF7D4FF4FF09041E1
S21400768030B10120074B1860FFF7CCFFC86008BD7B
S214007690FFF7C8FF0223CB60FFF7C4FF0122024BAF
S2140076A01A60F4E704100048042000484FF09043A6
S2140076B05B6870B50BB1FFF7B5FF0121104B06797B
S2140076C0196083784578002BC37814BF0224002401
S2140076D0002B14BF042200224379DB0043EA061382
S2140076E02B43234313434FF090429360054B19609E
S2140076F00378002B14BF0B460223D36070BD00BF77
S214007700042000480410004841F264034FF480311E
S214007710064AD150064B5B69C3F38512827003F0AC
S2140077203F021B0B42700370704700BF0080004092
S21400773000C0074038B50446054D1CF04AFB0FCC88
S2140077400FC594E8030085E80300002038BD00BF9D
S214007750A811002047F6FF739A42F0B55ED00229C2
S2140077605ED8304BCE0013F8311098190129857871
S21400777019460DD1C3785B1B23B1416831F913104C
S214007780914202DCE818C0B2F0BD013B1BB2F3E741
S21400779040680028F8D0B0F90030934204DBB0F916
S2140077A002309342B8BF13468288FF2A19BFC82406
S2140077B02827B0F90640B0F90870A4EB03040CBF04
S2140077C00122002294FBF7F414448A19567824B256
S2140077D0721EA242A8BF22464FF47A7700EBC2017F
S2140077E0CC888968013213FB041112B221EAE171D8
S2140077F001F5FA71B242B1FBF7F104DA00EBC2040C
S214007800A4888C42EAD200EBC20232F8040C88420A
S21400781028BF0846A84238BF2846B4E7FF20B3E78B
S2140078200020B1E7A81100200229F0B543D8244B68
S21400783003EBC10413F831306668012B0BD1E178F5
S214007840A378914294BFC3EB0103C3EB0203DBB200
S21400785036F91300F0BD76B3B6F902008242F9DDC0
S214007860E378B6F90050934227D9002164780436AD
S214007870013CE4B297B2CBB29C424FEAC10306D9B0
S21400788006EB030CBCF808C00131BC45F3D2F11876
S2140078904FF47A7353434A68B1F902409B1A0222A6
S2140078A094FBF2F2134493FBF4F39D4205DB9842FB
S2140078B0D0DC18B2CEE70348CCE72846CAE700BFBC
S2140078C0A81100200080FFFF0148FFF733BF00BF6C
S2140078D01CA9020007B56B46054A1068516803C329
S2140078E06846FFF7F5FD002003B05DF804FB00BF17
S2140078F0A0A902004FF0402213B50024536F68463B
S21400790043F00103536700948DF80440FFF79EFD93
S214007910204602B010BD000070B586B001AA15461C
S214007920114B03F11006144618685968083303C44F
S214007930B3422246F7D14FF6FF7219889B78218012
S214007940A3700A4B0A481B88934208BF8C23DBB2FD
S2140079508DF80D308DF80E30FEF7B4FD2846FFF793
S214007960E3F9002006B070BDA8A902000001E00FF0
S21400797000F0490208B50120FFF778FA002008BD9C
S214007980BFF34F8FBFF36F8F054A536A23F48033DC
S2140079905362D2F8943023F00103C2F89430704753
S2140079A000ED00E070B5FFF7EBFF1E4C1E481F4BC6
S2140079B0844208BF4FF08042196B1CBF20F01F02A4
S2140079C0203A21F0FF0141F0A001B2F1005F1963F7
S2140079D009D3174D174E296842F00102996001310C
S2140079E0DE601A61296084420CD01148124A016890
S2140079F022F01F0242F003029960DA600F4A01315A
S214007A001A610160BFF34F8FBFF36F8F05225A6074
S214007A100B4A536A43F480335362BFF34F8FBFF36E
S214007A206F8F70BD1C0B00204809002090ED00E011
S214007A30C0110020030000203B0B0020E1FFFF3FA9
S214007A4000ED00E010B51446FFF79AFF1F2C194B07
S214007A501ED91A6BC40622F47F4242F4807218BF05
S214007A6020F01F00144C1A6318BF2030CA0618BF37
S214007A7021F01F01226820F01F0021F01F019A60EC
S214007A8040F0030041F003010132D8601961226022
S214007A90BFF34F8FBFF36F8F05225A60074A536AB2
S214007AA043F480335362BFF34F8FBFF36F8F0020D2
S214007AB010BD00BF90ED00E0C011002000ED00E01A
S214007AC0BFF34F8F0549064BCA6802F4E0621343C2
S214007AD0CB60BFF34F8F00BFFDE700BF00ED00E0B7
S214007AE00400FA0508B5FFF7EBFF08BD034B1B784B
S214007AF0002B14BF01200220704700BFEC110020AD
S214007B000329F8B598BF124B06460F4694BF5C5C37
S214007B100024032805D8DFE800F002080B0E44F026
S214007B2002040C4B1D684DB9F8BD44F00804F8E794
S214007B3044F02004F5E744F08004F2E76B681A6826
S214007B40144203D05B683946304698472D68EAE70A
S214007B50BBA90200E811002038B50B4C227852B1C0
S214007B600A4D2B781BB100F061FA00232B7000F051
S214007B70AFFA00232370064C01212078FFF7C0FFE0
S214007B800123237038BD00BFE6110020E411002059
S214007B90DC11002070B5FFF741FB114E0546337827
S214007BA0CBB900F07BFB044620B12846FFF73AFB32
S214007BB0204670BD00F06CFC0A4B186000F042F9DD
S214007BC00948FEF7BDFC094B1C6000F0A7FA084BFD
S214007BD01860012333702846FFF724FB0024E7E7EC
S214007BE0E5110020F0110020E8110020F41100201B
S214007BF0E0110020F8B50D460446FFF70FFB002DF8
S214007C0014BF0121FF21134A0646601E135C124C66
S214007C100B4413542278012A17D9FFF767FF8242D4
S214007C20074612D90D4D2B781BB100F0FFF9002343
S214007C302B700B4D2B781BB100F04AFA00232B70EB
S214007C4039462078FFF75CFF27703046BDE8F840DD
S214007C50FFF7E8BAEC110020DC110020E411002048
S214007C60E611002030B5044685B0B0B1841E012C64
S214007C701CD803A9002000F0CBFB0546B0B9154B75
S214007C80039A1B689A4213D80121134A0846FFF745
S214007C90B1FF0122114B1A7008E0104D2B782BB162
S214007CA001460D4A0120FFF7A5FF2C7005B030BD38
S214007CB00B4B1C6800F036FA039920448842E3D246
S214007CC00223091ACDE90053064A2B46064800F05F
S214007CD045FBEBE7E0110020BFA90200EF110020F2
S214007CE0F4110020597B0000C411002010B5044692
S214007CF0FFF794FA002C14BF0121FF21034A1378E2
S214007D000B441370BDE81040FFF78CBAEE1100204C
S214007D1038B541600446FFF781FA05462146044817
S214007D20FEF711FC2846BDE83840FFF77BBA00BFD7
S214007D30E8110020054B1B685843054B00F57420DE
S214007D4000F23F20B0FBF3F0704700BFF0110020B8
S214007D5040420F002DE9F843FFF760FA0546FEF7AC
S214007D602EFB00285BD0304FDFF8D4903E4699F8C3
S214007D70003033B12D4A1378013B1370002389F885
S214007D800030FFF7B3FEFFF76DFFFFF7AFFE0128E9
S214007D90044604D9264B1B780BB900F001F9387855
S214007DA0A04203D02146FFF7ABFE3C70012C0CD955
S214007DB01F4C23784BB91F4B1B7823B900F030F9C2
S214007DC001221D4B1A7001232370307800F090F9C1
S214007DD000E000BF2846FFF725FAFFF71FFA054622
S214007DE0164800F093FAFEF7F5FA80460028BED152
S214007DF00F4C227852B1104F3B781BB100F016F9A9
S214007E0087F8008000F064F9002323700020FFF755
S214007E1029FF00213078FFF773FE002333702846D1
S214007E20BDE8F843FFF7FEB9DC110020EC11002096
S214007E30E6110020EE110020E4110020C4110020FD
S214007E40EF110020F7B50024022302A800F8084D21
S214007E508DF805308DF804404FF40025FFF7E2FA60
S214007E608DF8054041F2640401A8FFF7E5FA424A9E
S214007E70424B116F01F007011960D2F82031D2F899
S214007E80240115514FF40035155102F5A0329269C0
S214007E903B4C02F002050329C2F3400200F0070043
S214007EA022705ED003F003039E1E734273410228C5
S214007EB008BF43F00103334A13704DB143B92E4B4C
S214007EC0D3F8003103F00303591E4B424B411370A5
S214007ED04FF41670FFF72EFF00222B4B2B4D186029
S214007EE02B4B196845F8220001320A2AFAD100EB1A
S214007EF0C0020844104418602378264C1BB31E4B5F
S214007F00D3F8003103F00303022B2CD0032B2DD023
S214007F10012B2ED1FEF7D0FA00271F4B0246DB6856
S214007F20461EC3F30B0301331C4803EB8301E0FB3F
S214007F30016700233046394622F0A6F8FFF7FAFE1E
S214007F402368184420602320FFF7F4FE23681844B3
S214007F5020606420FFF7EEFE23681844206003B01C
S214007F60F0BD0123A3E7FEF7CFFAD5E7FEF7C0FA88
S214007F70D2E70020D0E700BF008000404420002069
S214007F8030120020331200202C1200200012002095
S214007F90FC1100203412002000C0014040420F00B7
S214007FA0FFF7E6B9064B1A7842B100221A70054A66
S214007FB0136F23F0070343F001031367704700BFF6
S214007FC0311200200080004008B5104B1B78DBB152
S214007FD0022000F0D5FBB8B100F048FAA0B10C4B77
S214007FE09A6DD20302D5DB6D9B070DD40122094B97
S214007FF01A7000F041FA084B084A1860136F23F015
S214008000070343F00303136708BD00BF33120020C5
S21400801000C0004032120020F8110020008000400E
S2140080200122014B1A70704731120020F8B51F4B21
S2140080301B78002B38D01E4C23788BB91D4B9A6DBD
S214008040D20302D5DB6D9B072ED400F015FA1A4B2F
S2140080501A4A1860136F23F0070343F003031367ED
S21400806000F00AFA144B164D1B68164EC01A2B78F1
S214008070154F56F8232046F82300111A3A6813487D
S214008080521A0A213A600932B2FBF1F20133DBB22E
S2140080900260B3FBF1F201FB12332B700023237056
S2140080A0BDE8F840FEF7F2B9F8BD00BF3312002075
S2140080B03212002000C00040F8110020008000406E
S2140080C02812002000120020FC1100202C12002094
S2140080D008B5FFF750F9044A0449136F096823F0FE
S2140080E007030B43136708BD0080004044200020B0
S2140080F002280AD003280BD001280CD1064A13699F
S21400810023F00403136130BF70470020FFF70CB95B
S2140081100020FFF72BB9704700ED00E04FF4C87061
S214008120FFF708BE044B1B680BB103EBD303034AEF
S21400813010681844704700BF2C120020341200202C
S214008140104A30B5136841611546ABB910608360BC
S21400815011E0091B9C6841611A467CB123465C69A4
S2140081608C42F6D9002CF4D052B19060836013B1E3
S2140081705A69511A596130BD0022F0E72346F4E7E8
S2140081802860F3E75012002010B500F0A1FA094B62
S214008190094A196831B11368C41A4B69A34203D35C
S2140081A01B1B4B61106003E0C01A002310604B617C
S2140081B010BD00BF501200203C12002038B50F4DF5
S2140081C002202B685C690E4B1B681C4400F0B4FA56
S2140081D0204600F085FA00230A492A680B70D088EA
S2140081E0800702D501230B7038BD9268002AFBD0A9
S2140081F050690344012BF2D9F6E700BF5012002065
S2140082003C1200204412002070B59DF8145016460B
S21400821005710025049A8560BDF818500446C5808F
S2140082200260C0E903360D4629B961610BB11146FB
S214008230984796B13546FEF7F8FF0646FFF7A4FFC7
S21400824029462046FFF77CFF054B1B68A34201D159
S214008250FFF7B4FF3046FEF7ECFF002070BD00BF0E
S2140082605012002000210C4A13687BB183420AD1C9
S214008270836879B18B6083681BB15A6941690A4487
S2140082805A610020704719469B68EEE70028EFD039
S214008290022070471360EEE75012002070B5FEF71C
S2140082A0C4FF134D06462C78D4B9124B1C60124BF3
S2140082B01C60124B1C8000F0C9F9012000F03CFA4B
S2140082C000F088FA0E4B0246186070B123460D483F
S2140082D040F2E73121F0D8FE0B4B186001232B70DB
S2140082E03046FEF7A6FF002070BD2320FCE700BF47
S2140082F038120020501200203C12002046120020A7
S2140083004C12002018FCFFFF401200202DE9F0411F
S2140083100546F8B1FEF789FF0F4F0646FFF734FF14
S2140083202846D7F80080FFF79DFF044628B1304660
S214008330FEF77FFF2046BDE8F081A8453B6803D1E5
S21400834023B1FFF73BFFF2E7002BF0D1022000F04D
S214008350FFF9ECE72224EDE750120020F0B50D46B9
S21400836085B016461F46044680B1FFF7CFFFBDF81E
S2140083702C30002202939DF828302946CDE9007360
S21400838020463346FFF740FF05B0F0BD2220FBE74E
S21400839038B50C46054698B191B100230B70FEF730
S2140083A044FF0121074B1B680BB122781AB1FEF778
S2140083B040FF002038BD9D420CBF21709B68F3E74C
S2140083C02220F7E750120020F0B51F46002387B0A2
S2140083D00D4616468DF817300446A0B10DF117016C
S2140083E0FFF7D6FF9DF817207AB9BDF83430294636
S2140083F002939DF830302046CDE900733346FFF7F0
S21400840003FF07B0F0BD2220FBE70320F9E70000DA
S214008410F8B507460E46FEF708FF00240546114B42
S2140084201B6823B92846FEF704FF1B2015E05A698F
S2140084301444DA88BA4213D100F04AF90A4F3B686E
S214008440C01AA0420AD200F043F93B68C01A201AAC
S21400845030602846FEF7EDFE0020F8BD0020F7E766
S2140084609B68DEE7501200203C120020014B187873
S214008470704700BF4412002038B5FEF7D6FE05460A
S21400848000F026F904462846FEF7D3FE204638BDFF
S214008490014B1868704700BF4C1200200A4B10B5FD
S2140084A01B680C4683420CD3084B4FF47A7219684B
S2140084B00023A0FB010121F0E7FD01302060002031
S2140084C010BD2120FCE700BF401200204C12002007
S2140084D0104B10B51A684FF47A73A0FB0301A2B1D3
S2140084E0531E134211D1B2FA82F2C2F11F02C2F138
S2140084F02004A2F1200301FA04F420FA02F2224337
S21400850021FA03F342EA030010BD002321F0BCFD6C
S214008510FAE700BF4C120020C2072DE9F84F0446C8
S2140085200BD53F4A138801339BB21380FFF72CFE0E
S2140085303C4B1B680BB1FFF741FEA3076DD500F05F
S214008540C7F8394F00263D688046451BFEF76DFE8E
S214008550B24683463246334B1C6814B16369AB425D
S21400856014D9012E314B51D1D288022A4ED11E7019
S214008570002C4ED06369C7F800805D1B6561FFF76D
S2140085801DFE5846BDE8F84FFEF753BE23462A4662
S214008590C7F800805969914209D8187994F804C040
S2140085A0521A844588BF1C469B68002BF2D1584659
S2140085B0FEF73FFED4F814B0C4F814A0FEF735FE5C
S2140085C081462046FFF74EFE4846FEF732FE2369F8
S2140085D04BB1FEF72AFE814621692046FFF7B0FD23
S2140085E04846FEF726FEE36813B121682046984702
S2140085F000F06EF8D844A5EB080581460544FEF762
S21400860014FE013683462246C846A4E700221A70A6
S214008610AEE7022000F09CF8B3E7BDE8F88F00BF95
S21400862046120020501200203C1200204812002063
S21400863010B5FEF7FAFD0022034B1C781A70FEF701
S214008640F8FD204610BD00BF481200201FB50024CC
S2140086501C4B012118689A88029053F8060FADF853
S2140086600C201B7900903E208DF80430FEF74EF962
S21400867002A88DF808408DF80C40FFF717F86946F9
S21400868001208DF80040FEF7D5FF4FF0904340F2F2
S214008690FF319A6922F47F7222F003029A610A4A35
S2140086A011609A6A12F00802FBD11A620120FEF7E6
S2140086B0DBFF4FF48052054BC3F880211A6004B0EC
S2140086C010BD00BFC9A902001420004800E100E068
S2140086D04FF090439A6A1207FCD4186A704700005D
S2140086E04FF09042936A1907FCD4136A116C5269D2
S2140086F0520604D4CA1A022A01D899420ED1C21AC6
S214008700012A98BF981CB0F1FF3F28BF01304FF0F8
S214008710904318649A6942F040029A61054A1378B9
S2140087203BB14FF09041CB6B43F00203CB63002389
S214008730137070474A08002082074FF0904200F0FE
S2140087400103916948BF43F040030B4393617047B0
S214008750830700F001020AD50121084B42F04002CF
S21400876019704FF09041CB6B23F00303CB634FF0AF
S21400877090418B6923EA02038B6170474A08002008
S2140087804FF0904301285B6904D0022805D1C3F35B
S2140087908010704703F0010070470020704700000B
S2140087A010B5FEF742FD4FF0904304465B695A064B
S2140087B0074A03F0010003F0510348BF40F00200EF
S2140087C01360FFF7A9FE2046BDE81040FEF731BD56
S2140087D0142000483E20FEF7E3B808B5FDF7A6FDD6
S2140087E0FDF7D2FDFDF7D1FDFDF7D8FDBDE8084049
S2140087F0FDF7DBBD08B5FDF7D9FDFDF7D8FDFDF7A4
S214008800D7FDBDE80840FDF7D5BD242070474420BD
S21400881070474C2070479C20704738B50446FEF7DA
S214008820FDFC0546204621F0F9FD04462846FEF7E5
S214008830F9FC204638BD70B504460E46FEF7EEFC41
S21400884031460546204621F0A9FD04462846FEF797
S214008850E9FC204670BD38B50546FEF7DFFC044649
S214008860284621F0E3FD2046BDE83840FEF7DABC96
S214008870002070470023F0B51C46161F844203D123
S21400888002EB8402B3B9F0BD56F804CFACEB030597
S214008890356051F824700134BD422CBF4FF0000EF5
S2140088A04FF0010EED1B9C452CBF73460EF10103E5
S2140088B03560E3E71168C81A994242F8040B2CBFEA
S2140088C000230123DEE72DE9F04384460D464FF0F2
S2140088D0000E02F14004BCF10F0F54F8408C05F175
S2140088E0400504F1400400F2BA806FF00F044FEA2E
S2140088F0101C04FB0C004FEA8C1C072801EB0C052F
S21400890002EB0C0440F2938051F80C600838A3FB8D
S21400891006671EEB060E2CBF4FF001094FF000094C
S21400892018EB0E0142F80C102CBF012200226E68D4
S214008930B944A3FB06674A4492192CBF01210021C3
S214008940666801EB070C92194FF0000128BF012161
S2140089506260AE686144A3FB066789192CBF0122DA
S2140089600022A66802EB070C89194FF0000228BF08
S2140089700122A160EE686244A3FB066792192CBF31
S21400898001210021E66801EB070C92194FF0000167
S21400899028BF0121E2602E696144A3FB066789199E
S2140089A02CBF01220022266902EB070C89194FF022
S2140089B0000228BF012221616E696244A3FB06679C
S2140089C092192CBF01210021666901EB070C921950
S2140089D04FF0000128BF01216261AE696144A3FB2C
S2140089E0066789192CBF01220022A66902EB070E32
S2140089F089194FF0000228BF0122A161EE69724476
S214008A00A3FB066792192CBF4FF0010E4FF0000E25
S214008A1005F1200CE5690EEB070152194FF0000E28
S214008A2028BF4FF0010E6546E2618E442034214691
S214008A30800005EB000C654551F8042B40F09E8144
S214008A4004442368002213EB0E0328BF012244F8D7
S214008A50043B4FF0010E002AF3D1BDE8F08355F831
S214008A60406CACF1100CA3FB06671EEB060E2CBF89
S214008A704FF001094FF000091EEB08062CBF4FF01F
S214008A8001084FF0000844F8806C55F83C6CB94477
S214008A90A3FB0667C84418EB06082CBF4FF0010E70
S214008AA04FF0000E54F87C6C0EEB070916EB080628
S214008AB04FF0000E28BF4FF0010E44F87C6C55F8BE
S214008AC0386CCE44A3FB06671EEB060E2CBF4FF099
S214008AD001084FF0000808EB070954F8787C4FF0BF
S214008AE0000817EB0E0728BF4FF0010844F8787C03
S214008AF055F8346CC844A3FB066718EB06082CBF71
S214008B004FF0010E4FF0000E54F8746C0EEB070990
S214008B1016EB08064FF0000E28BF4FF0010E44F883
S214008B20746C55F8306CCE44A3FB06671EEB060E3D
S214008B302CBF4FF001084FF0000808EB070954F867
S214008B40707C4FF0000817EB0E0728BF4FF00108A7
S214008B5044F8707C55F82C6CC844A3FB066718EBE9
S214008B6006082CBF4FF0010E4FF0000E54F86C6C48
S214008B700EEB070916EB08064FF0000E28BF4FF065
S214008B80010E44F86C6C55F8286CCE44A3FB0667BF
S214008B901EEB060E2CBF4FF001084FF0000808EB46
S214008BA0070954F8687C4FF0000817EB0E0728BF3B
S214008BB04FF0010844F8687C55F8246CC844A3FBC1
S214008BC0066718EB06082CBF4FF0010E4FF0000E9C
S214008BD054F8646C0EEB070916EB08064FF0000E0F
S214008BE028BF4FF0010E44F8646C55F8206CCE4454
S214008BF0A3FB06671EEB060E2CBF4FF001084FF0D6
S214008C00000808EB070954F8607C4FF0000817EBE3
S214008C100E0728BF4FF0010844F8607C55F81C6C1E
S214008C20C844A3FB066718EB06082CBF4FF0010EDE
S214008C304FF0000E54F85C6C0EEB070916EB0806B6
S214008C404FF0000E28BF4FF0010E44F85C6C55F84C
S214008C50186CCE44A3FB06671EEB060E2CBF4FF027
S214008C6001084FF0000808EB070954F8587C4FF04D
S214008C70000817EB0E0728BF4FF0010844F8587C91
S214008C8055F8146CC844A3FB066718EB06082CBFFF
S214008C904FF0010E4FF0000E54F8546C0EEB07091F
S214008CA016EB08064FF0000E28BF4FF0010E44F8F2
S214008CB0546C55F8106CCE44A3FB06671EEB060EEC
S214008CC02CBF4FF001084FF0000808EB070954F8D6
S214008CD0507C4FF0000817EB0E0728BF4FF0010836
S214008CE044F8507C55F80C6CC844A3FB066718EB98
S214008CF006082CBF4FF0010E4FF0000E54F84C6CD7
S214008D000EEB070916EB08064FF0000E28BF4FF0D3
S214008D10010E44F84C6C55F8086CCE44A3FB06676D
S214008D201EEB060E2CBF4FF001084FF0000808EBB4
S214008D30070954F8487C4FF0000817EB0E0728BFC9
S214008D404FF0010844F8487C55F8046CC844A3FB6F
S214008D50066718EB06082CBF4FF0010E4FF0000E0A
S214008D6054F8446C774416EB08064FF0000E28BF04
S214008D704FF0010E44F8446CBE44ACE555F8046B65
S214008D80A3FB06781EEB070E2CBF012600261EEB63
S214008D9002022CBF4FF0010E4FF0000E464441F881
S214008DA0042CB64447E601F18041013900EB81010D
S214008DB08842034600D970471B680A681BBA12BA75
S214008DC040F8042B41F80439F2E7002301228360BF
S214008DD0C0E90023704710B5044668B1806830B11A
S214008DE06168890001F010FEA068FFF734FD0023DB
S214008DF00122C4E90023A36010BD42F21073994219
S214008E0070B504460D4602D96FF00F0070BD43687A
S214008E108B4216D204212846FFF70DFD0646002891
S214008E20F2D0A16859B16268920021F016FB616821
S214008E30A068890001F0E8FDA068FFF70CFDC4E912
S214008E4001560020E2E7884270B505460E4603D07C
S214008E504C681CB9FFF7BFFF00200DE0631EA000A2
S214008E605BB96A685C1C3368A2422B600ED221464E
S214008E702846FFF7C2FF88B170BDB268024452F8B8
S214008E80042C0438002AECD1013BE9E7A868121B41
S214008E909200002100EB840021F003FBA200B168E1
S214008EA0A86821F0DAFAD7E770B50E460121044625
S214008EB0FFF7A3FF054688B9626801469200A068DE
S214008EC021F0EFFAA36886EAE672002EA2EBE672BD
S214008ED01A60B4BF4FF0FF3301232360284670BDED
S214008EE04368DBB181685A1E9B007AB900204FF0B8
S214008EF0004351F82210194204D1013020284FEACD
S214008F005303F8D1C0EB421020307047C81850F811
S214008F10040C043B0028E9D1013AE6E718467047FE
S214008F202DE9F04112F0030418BF0124436804EB56
S214008F309204A34207468846154608D100213846C3
S214008F40FFF7B2FF064688B13046BDE8F081FFF76E
S214008F5042FF00230122BB60C7E9002321463846B2
S214008F60FFF74BFF06460028E8D0EDE7B8F1000F04
S214008F70EAD0BB68C5EB84002A464146184421F077
S214008F806CFA002CE0D02146B868FFF70CFFDBE750
S214008F90F8B505466C680846A40094421CD2121B1D
S214008FA08E18002121F07DFA304622460023104418
S214008FB09A4213D10020F8BDAF6803F0030123F0F6
S214008FC0030CCE0057F80C10F14011F0FF0F11D132
S214008FD00133A342F0D1E9E71346FAE7AF6803F09E
S214008FE0030123F00306CC00B9590133E14000F831
S214008FF0011DDDE76FF00700DDE7F8B506460D4614
S2140090004C0901F01F07FFF76BFF73682844B0EBAD
S214009010431F03D874B92FBB00200AE010F01F01CD
S21400902018BF012101EB50113046FFF7E6FE00287D
S214009030F0D0F8BD7368A00003F18042013A121B1D
S2140090409200A34207D800229B00043B191DE2D0E1
S214009050B168CA50F9E7B168013B8D5811440D500C
S214009060043AEEE70021D6F804C0A300C7F1200EAC
S214009070A445D1D9B5680134E85800FA07F20A4386
S214009080EA5020FA0EF10433F2E74368F0B44D09D3
S214009090AB4203D301F01F0104D169B3F0BC002139
S2140090A0FFF702BFE5B929B100259A00C1F1200CEF
S2140090B0043ABBB9F0BC002070478468561954F8CF
S2140090C0266044F8226001325C1B9442F5D80025E5
S2140090D0A200A342E7D986680134B5500432F8E707
S2140090E00022F1E78768013BBE5826FA01F42C43BC
S2140090F0BC5006FA0CF5DBE7002BDBD00A46E3E7AC
S21400910070B543689A0033B94A68940062B9181C6F
S21400911018BF012016E08468144454F8044C043A3E
S214009120002CF1D1013BEEE78D682E1956F8046C41
S214009130043C0EB9013AE9E793420DD80ED39A00E3
S2140091400BB9184670BD8168043A8C58A9588C42F1
S21400915002D803D3013BF3E70120F3E74FF0FF30DB
S214009160F0E770B543689A0023B94A68940052B98C
S2140091709BB924E08468144454F8044C043A002C48
S214009180F3D1013BF0E78D682E1956F8046C043CC9
S2140091900EB9013AEBE7934202D90268104670BD59
S2140091A0096801D24A42F9E70268002A01DD00296F
S2140091B012DB002901DD002A10DB99000BB91A46E4
S2140091C0ECE78468043966586C58A642E6D801D2A3
S2140091D05242E3E7013BF1E70122DFE74FF0FF32BF
S2140091E0DCE71FB581EAE173A3EBE1730029009386
S2140091F0B4BF4FF0FF3301230193012301A902936B
S214009200CDF80CD0FFF7ADFF05B05DF804FB90423B
S2140092102DE9F04106460C46154602D0884231D16B
S2140092202C460123D4F8048033604FEA8803B8F153
S214009230000F2FD141463046FFF7DFFD074630BB13
S214009240B368D4F808E0194604460546A8452BD16D
S21400925003EB8503DCB1726805F10108AA4207D862
S21400926041463046FFF7C9FD80BBB36803EB850374
S2140092701A680021141928BF012143F8044B4546FB
S2140092800C46E7E7FFF7DFFD07460028C8D038465C
S214009290BDE8F081A2681A4452F8042C043B002A68
S2140092A0C8D108F1FF38C2E70A685EF8250014192D
S2140092B04FF0000C28BF4FF0010C241841F8044B67
S2140092C02CBF0124002401356444BFE70746DEE7CF
S2140092D0F0B50F4685B00646114638461546FFF7E8
S2140092E00FFF00282FDB00230122B542CDE9012322
S2140092F0039306D1294601A8FFF7A5FD0446A0B9A9
S21400930001ADB7420AD101236868A96833608300BB
S21400931088B9B268FFF7AEFA002406E03946304650
S214009320FFF791FD04460028EDD001A8FFF753FD96
S214009330204605B0F0BDCA1852F8042C043B002A9B
S214009340E7D10138E4E76FF00904F1E7F8B50C68F7
S2140093501368054663430F46164616D5114638462B
S214009360FFF7CEFE002806DB324639462846FFF7D2
S214009370AFFF40B1F8BD3A4631462846FFF7A8FF92
S2140093800028F7D164422C60F4E7FFF740FFF0E7CF
S214009390F8B50C68136805466343002B0F4616465F
S2140093A016DD11463846FFF7ABFE002806DB3246D0
S2140093B039462846FFF78CFF40B1F8BD3A4631469D
S2140093C02846FFF785FF0028F7D164422C60F4E7B3
S2140093D0FFF71DFFF0E71FB582EAE273A3EBE27327
S2140093E0002A0093B4BF4FF0FF33012301930123FB
S2140093F001AA0293CDF80CD0FFF7CAFF05B05DF8BE
S21400940004FB2DE9F04700231546012286B088426A
S21400941080460E46CDE90023CDE90232CDE904337D
S21400942005D16846FFF70FFD044650BB6E46A845BB
S21400943006D1414603A8FFF706FD044608BB03AD68
S214009440D6F804904FEA8903B9F1000F23D16F686C
S214009450BB0057BB09EB07014046FFF7CEFC0446AE
S21400946078B901464046FFF71FFD044648B94FEA63
S214009470870AAAF1040A0FBB32682B685343C8F860
S214009480003003A8FFF7A7FC6846FFF7A4FC2046B9
S21400949006B0BDE8F087B2681A4452F8042C043BC4
S2140094A0002AD4D109F1FF39CEE7AA681A4452F847
S2140094B0042C043B002ACDD1013FCAE7AB68D8F89C
S2140094C0082053F80A305244B1684846FFF7FBF9C3
S2140094D0013FCEE71FB50123009201AACDE9013373
S2140094E0CDF80CD0FFF78DFF05B05DF804FB2DE935
S2140094F0F04F99B001900F4618460021904603930E
S214009500FFF76FFE002800F0A481002401250399D0
S2140095104046CDE90954CDE90B45CDE90D44CDE9EA
S2140095200F54CDE91145CDE91344CDE915541794F0
S214009530FFF7E6FDA04226DA019B2BB9DFB900242F
S214009540204619B0BDE8F08F21460198FFF7ACFC25
S21400955004460028F2D009A8FFF73DFC0CA8FFF748
S2140095603AFC0FA8FFF737FC12A8FFF734FC15A843
S214009570FFF731FCE4E741463846FFF764FC044653
S2140095800028E8D1DBE7414609A8FFF75CFC044663
S2140095900028E0D10CAE03993046FFF754FC044691
S2140095A00028D8D1D8F804100FA802310C950995D8
S2140095B0FFF723FC04460028CDD101460FA8FFF78D
S2140095C073FC04460028C6D1022112A8FFF715FC3A
S2140095D004460028BFD1032115A8FFF70EFC044659
S2140095E00028B8D13046FFF77BFC00F01F001F288C
S2140095F074D0C0F11F03194609A80293FFF7FDFCBB
S21400960004460028A7D102993046FFF7F6FC044628
S2140096100028A0D10A9DDDF834A005F1FF390AF133
S214009620FF33A9EB030B00934FEA4B131946304662
S2140096300493FFF7E2FC044600288CD14FEA8B0B1C
S214009640314609A8FFF78DFD002849DA049930460F
S214009650FFF71BFD044600287FF47DAF009B05F155
S21400966080454FEA830BABF1040307936FF00303C7
S21400967003FB0AF3013D0693CAEBCA63AD000593EC
S214009680009B99453BD8019B5BB10FA91846FFF795
S214009690DAFB08BB039BD8F800201B685343019AEB
S2140096A01360002F3FF457AF029909A8FFF7EDFCAF
S2140096B090B9D8F8003009A938460993FFF7C3FBDC
S2140096C00146002840F0C3803846FFF78AFD002890
S2140096D07FF441AF01233B6004463CE7029499E7E0
S2140096E0119951F80B20013241F80B2009A9324696
S2140096F00846FFF74DFE04460028A1D02BE70B993D
S2140097000E9A06984B5952F80B2046199342A5F12B
S21400971004000490DDF844A07ED34FF0FF334AF8EF
S21400972006305AF8063001334AF80630A5F1080A22
S214009730119A0021935912A8013B9351FFF7B4FBED
S2140097400028C9D1009B0E9A002B7ED0079BD158CB
S214009750149B196052F80B2012A95A60119B0846F8
S2140097609A59FFF7B7FE0146002870D115A8FFF7F3
S2140097709BFB0028B0D10B9AB9F1010F18BF52F825
S2140097800A00179B04991860515812A8596052593C
S21400979015A99A60FFF7E5FC0028C9DC119B0CA907
S2140097A09A5912A8FFF796FE002895D1059B12A895
S2140097B003EB090A4FEA4A1A5146FFF71EFC002837
S2140097C08AD109A9084612AAFFF7E2FD0146002839
S2140097D03DD109A8FFF705FD002819DA0CA912A843
S2140097E0FFF731FB00287FF477AF514612A8FFF74A
S2140097F004FC00287FF470AF09A912AA0846FFF7F8
S214009800A5FD00287FF468AF119A9359013B935148
S21400981009F1FF39043D33E7049851F800C08AB1D6
S21400982019460023184640EA0C0020F02DFC0023C1
S2140098304FF0FF328B4208BF824200D210464AF8F1
S21400984006006EE74FF0FF30F9E7009980E70C4618
S21400985081E66FF00B0473E670B504460D461046BD
S21400986000211646FFF7BDFC002824DB2A463346B7
S21400987021460020FFF73BFE054638B1284670BD5E
S214009880324621462046FFF761FD90B9002120466A
S214009890FFF7A7FC0028F3DB31462046FFF761FC04
S2140098A00028EBDB324621462046FFF771FD0028F4
S2140098B0F2D00546E2E76FF00905DFE718B112B10E
S2140098C01160002070470148704700BF009FFFFFEF
S2140098D0054B53F8042C22B1083313F8101C8142B0
S2140098E0F7D11046704700BFC8AB020010B504465B
S2140098F098B1006C28B1242101F086F8206CFEF7A0
S214009900AAFFE06B18B123689B691B6A984720463C
S214009910BDE81040442101F077B810BD30B40468AB
S214009920B4B12569AD0702D46568954210D1012B04
S2140099304260037203D06578033D022D04D8A36904
S2140099405B69C06B30BC184713B9A3699B69F8E71D
S214009950014830BC704700BF009FFFFF2DE9F04F65
S2140099601546026885B004460F469946DDF83880ED
S2140099701AB9624805B0BDE8F08F0021C8F800109B
S2140099805669002E00F0B380517801290FD1B542F8
S21400999040F0AF809269C8F8005055683A46AC4629
S2140099A090F90810C06B05B0BDE8F04F60479F42C5
S2140099B008D1436A002BDCD1B5FBF6F306FB135344
S2140099C0002BD6D102296ED194F90830606A7BB993
S2140099D0E268331A7AB1AB420FD314302A463946BE
S2140099E0204420F03AFD636A1D4465620020C1E70A
S2140099F0012B02D1331AAB42EFD810B3A6EB000A04
S214009A00143052463946204420F027FD234653F8AA
S214009A10142B94F908109269CDE90039E06BD2F85E
S214009A2008B004F128033246D8470028A2D1D8F857
S214009A300030B1443344C8F8003057446062A5EBA8
S214009A400A05002DD2D0B5FBF6FA06FB1A5ABAF173
S214009A50000F06D194F908301BB9E368002B18BF35
S214009A60B246A5EB0A055246791904F1140020F017
S214009A70F4FC636A53446362002DB7D0236894F9FC
S214009A8008109B69CDE900792A469E68E06B04F1D0
S214009A902803B04700287FF46DAFD8F800301D4487
S214009AA0C8F8005066E7032910D19369CDE901791B
S214009AB004F128020092DE6894F9081004F12403E9
S214009AC02A46E06BB0470028EAD053E7052912D1B2
S214009AD09369CDE9017904F1140200921E6904F13C
S214009AE0240204F128032946E06BB047EBE704485C
S214009AF040E704483EE704483CE700BF009FFFFFFE
S214009B00809CFFFF809DFFFF809FFFFF036853B18F
S214009B105B78022B07D1042907D10023044AC360CF
S214009B20026118467047034870470348704700BFF5
S214009B30BD980000009FFFFF809FFFFF38B50446DA
S214009B400D4679B14422002120F0ABFCAB69DB69FD
S214009B509847E06340B1256004212046FFF7D6FF12
S214009B60002038BD0148FCE70148FAE7009FFFFFE8
S214009B70809EFFFF10B5044602F0E4F92046BDE8DB
S214009B801040FEF768BE10B524210120FEF753FEF4
S214009B90044608B102F0D2F9204610BD13460A4624
S214009BA0022102F0D5B910B5044601F0FAFF2046AE
S214009BB0BDE81040FEF74FBE10B524210120FEF789
S214009BC03AFE044608B101F0E8FF204610BD02F058
S214009BD009B801F0ECBF02F028B902F07EB802F036
S214009BE03AB802F001B82DE9F047B2F5C07FADF5FE
S214009BF00A7D07468846154600F29D804FF4D072CF
S214009C00002122A820F04DFC0DA801F0C6FF2B0A6B
S214009C1000248DF89A30302328AE41462A46304636
S214009C208DF89F30ADF898408DF89B5020F015FCCD
S214009C308023735523460DF1140803F808300133CA
S214009C40202BFAD14FF4807241460DA801F0AFFFE9
S214009C500446002851D1064619351022002101A8D5
S214009C6020F01FFCAA460DF187090DF1030309F148
S214009C70100113F8012F19F8010F424049451A70D8
S214009C80F7D101ABBAF1100F1A464FF001010DA83B
S214009C9094BFAAEB0A0AAAF1100A01F0A5FF04462F
S214009CA058BBBAF1000FE0D116AB9819102201A9E3
S214009CB020F0D3FB9DF88B3010360133302E8DF814
S214009CC08B30CAD14FF4807216A90DA801F06FFF31
S214009CD0044690B93D4607F130061EAB1A460121F0
S214009CE00DA801F081FF044638B9284610221EA9A7
S214009CF0103520F0B2FBAE42EFD10DA801F051FFB7
S214009D004FF4D07122A800F07FFE302116A800F094
S214009D107BFE2021404600F077FE102101A800F0CF
S214009D2073FE1CB13021384600F06EFE20460DF55D
S214009D300A7DBDE8F0876FF03704F7E72DE9F041BC
S214009D408CB004460E4630220021684620F0A9FB5F
S214009D504FF0000804F120070DEB080304F1100192
S214009D6011F8012D0132D2B20A700AB9A142F7D118
S214009D7022460121384601F037FF0546E8B908F1CA
S214009D801008B8F1300FE7D1731E0DF1FF322F36F1
S214009D9012F8011F13F8010F4140B3421170F7D1BA
S214009DA04FF480726946384601F001FF054620B937
S214009DB0102208A9204620F050FB6846302100F00B
S214009DC023FE28460CB0BDE8F0814C22002120F08E
S214009DD068BBF0B58369E1B0B3F5C07F05460F46B2
S214009DE0164630D8C3F5C07393422CD34FF4C072D6
S214009DF00021684620F055FB6B6CAA696946A86C82
S214009E00984718BBAC693FB136B10DEB040032463B
S214009E10394620F022FB3444224669466846FFF75E
S214009E20E2FE044638B969462846FFF787FF04462F
S214009E3008B901232B614FF4C071684600F0E4FDB9
S214009E40204661B0F0BD6FF03704F9E76FF03304D9
S214009E50F6E72DE9F04104468846174688B02022EA
S214009E600021684604F120051E4620F01AFB28460D
S214009E7001F093FEA369C4E911870BB92023A361FF
S214009E8042F210734FF48072E3616946284601F08F
S214009E908EFE20B90E9A31462046FFF79AFF08B08C
S214009EA0BDE8F0812DE9F041B2F5806F90B005462F
S214009EB00F4616469846169C5CD8B4F5807F5CD84C
S214009EC03022002104A820F0ECFA2A69EB699A42B5
S214009ED001DC6B699BB1224641462846FFF779FFB5
S214009EE0044620BB05F120082EBB04A92846FFF730
S214009EF025FF044698B92B6901332B610FE0002C2F
S214009F00F0D02246414604A8FFF76DFE044630B95D
S214009F1004A92846FFF712FF04460028E2D03021A5
S214009F2004A800F071FD1021684600F06DFD204683
S214009F3010B0BDE8F08105F1100212F8013D0133C2
S214009F40DBB213700BB9AA42F7D16B462A46012141
S214009F50404601F049FE04460028E0D1102E344663
S214009F6028BF102438462246694620F076FA274451
S214009F70361BB9E76FF03504D9E76FF03704D6E73C
S214009F80002307B50093FFF78DFF03B05DF804FBD1
S214009F90036B2BB1C36B002B0CBF02200120704754
S214009FA0184670474B6E70B504460D462BB9BDE893
S214009FB070400A1D0146FFF74FBC0368002B09DB03
S214009FC02046FEF78DFFAB6DB0EB430F08D9174E5A
S214009FD0304670BD0021FFF704F90028F0D0F6E700
S214009FE06B6E2046984706460028F1D10435236854
S214009FF0002B04DA00212046FFF7F3F868B929465B
S21400A0002046FFF7AEF80028E2DB2A462146204627
S21400A010FFF75EF90028F2D006E02A4621462046E1
S21400A020FFF794F90028E2D00646D1E780B0FFFF9C
S21400A03010B50446FEF7CFFE04F10C00FEF7CBFE8B
S21400A04004F11800BDE81040FEF7C5BE10B5044682
S21400A050FEF7BBFE04F10C00FEF7B7FE04F1180095
S21400A060BDE81040FEF7B1BE38B50025044600F83E
S21400A070045BFEF7AAFE04F11000FEF7A6FE04F14C
S21400A0801C00FEF7A2FE04F12800FFF7DFFF04F134
S21400A0904C00FEF79AFEC4E91655C4E91855C4E903
S21400A0A01A55C4E91C55A56738BD08B1FFF7C0BFEF
S21400A0B0704770B5044660B3036E012B12D00430AF
S21400A0C0FEF789FE04F11000FEF785FE04F11C0081
S21400A0D0FEF781FE04F12800FFF7E7FF04F14C00CD
S21400A0E0FEF779FE636F8BB92046BDE870407C2191
S21400A0F000F08ABC06FB0500FFF7D7FF0135D4E960
S21400A1001D03AB42F6D8FEF7A6FBEDE70025242696
S21400A110F5E770BDF0B50F4687B00546012107F19B
S21400A1201800FFF75EF8064658B92846FFF730FFD6
S21400A130012840F0A08031463846FFF752F8002844
S21400A14001DA4E4C6DE007F10C0431462046FFF76D
S21400A15048F80028F5DB2E1D31463846FFF701F893
S21400A1600028EEDA31462046FEF7FBFF0028E8DA44
S21400A1706846FEF72AFE03A8FEF727FE224621467B
S21400A1806846FFF73EF90446002844D1294668464B
S21400A190FFF708FF044600283DD13A46394603A893
S21400A1A0FFF72FF90446002835D1294603A8FFF704
S21400A1B0F9FE044678BBAB69002B41D103A9032204
S21400A1C00846FFF708F9044628BB039B002B2BDB49
S21400A1D003A93A460846FFF714F90446D8B92946B3
S21400A1E003A8FFF7DFFE0446A8B903A905F11C0281
S21400A1F00846FFF7ABF8044668B9314603A8FEF7F1
S21400A200B0FF002831DA03A96846FEF7AAFF1B4C08
S21400A210002808BF00246846FEF7DDFD03A8FEF709
S21400A220DAFD204607B0F0BD002103A8FEF7D9FFEF
S21400A2300028CDD003A932460846FFF787F8C2E7C4
S21400A24003A905F110020846FFF780F80446002827
S21400A250E1D1314603A8FEF784FF0028B8DB03A946
S21400A26032460846FFF734F8F0E703A932460846B8
S21400A270FFF72EF8BFE7024CD3E700BF80B3FFFF1F
S21400A28080B0FFFF036810B559184FF0000428BFD0
S21400A2900124016013781C44147010BD036810B5C7
S21400A2A014788B4238BF013C147003685B1A036055
S21400A2B010BD0923012270B5002104468EB0CDE9F9
S21400A2C0022305A824228DF80310049020F0E9F854
S21400A2D010212046FEF791FD0546002840F0288212
S21400A2E0A36801A81A68196A01920DF10302FFF724
S21400A2F0C9FFA3680DF10302596A01A8FFF7C2FF60
S21400A300A3680DF10302D96A01A8FFF7C7FFA36887
S21400A3100DF10302196B01A8FFF7C0FFA3680DF14A
S21400A3200302596B01A8FFF7B9FFA3680DF10302FA
S21400A330996B01A8FFF7B2FF019AA3681A609DF90E
S21400A34003105B68002901938DF803500DF103029A
S21400A35080F2F181494201A8FFF7A0FFA3680DF142
S21400A3600302596A01A8FFF78DFFA3680DF10302E7
S21400A370996A01A8FFF786FFA3680DF10302196B1F
S21400A38001A8FFF78BFFA3680DF10302596B01A824
S21400A390FFF784FFA3680DF10302996B01A8FFF78E
S21400A3A07DFFA3680DF10302D96B01A8FFF776FFC6
S21400A3B0019AA3689DF903105A609B680DF1030289
S21400A3C00193002399428DF8033080F2B881494208
S21400A3D001A8FFF763FFA3680DF10302996A01A8BD
S21400A3E0FFF750FFA3680DF10302D96A01A8FFF733
S21400A3F049FFA3680DF10302596B01A8FFF74EFF52
S21400A400A3680DF10302996B01A8FFF747FFA36845
S21400A4100DF10302D96B01A8FFF740FF019AA3686C
S21400A4209DF903109A60DB680DF103020193002387
S21400A43099428DF8033080F28681494201A8FFF7E1
S21400A4402DFFA3680DF10302D96A01A8FFF71AFFD2
S21400A450A3680DF10302D96A01A8FFF713FFA368EA
S21400A4600DF10302196B01A8FFF70CFFA3680DF1AD
S21400A4700302196B01A8FFF705FFA3680DF103029D
S21400A480596B01A8FFF7FEFEA3680DF10302D96B16
S21400A49001A8FFF703FFA3680DF10302196A01A8DC
S21400A4A0FFF7FCFEA3680DF10302596A01A8FFF747
S21400A4B0F5FE019AA3689DF90310DA601B690DF199
S21400A4C003020193002399428DF8033080F23F8106
S21400A4D0494201A8FFF7E2FEA3680DF10302196BDB
S21400A4E001A8FFF7CFFEA3680DF10302196B01A8C0
S21400A4F0FFF7C8FEA3680DF10302596B01A8FFF72A
S21400A500C1FEA3680DF10302596B01A8FFF7BAFE5E
S21400A510A3680DF10302996B01A8FFF7B3FEA368C9
S21400A5200DF10302596A01A8FFF7B8FEA3680DF102
S21400A5300302996A01A8FFF7B1FE019AA3689DF984
S21400A54003101A615B690DF103020193002399421F
S21400A5508DF8033080F2FF80494201A8FFF79EFE87
S21400A560A3680DF10302596B01A8FFF78BFEA368E1
S21400A5700DF10302596B01A8FFF784FEA3680DF1E5
S21400A5800302996B01A8FFF77DFEA3680DF1030295
S21400A590996B01A8FFF776FEA3680DF10302D96B4D
S21400A5A001A8FFF76FFEA3680DF10302996A01A8E0
S21400A5B0FFF774FEA3680DF10302D96A01A8FFF73E
S21400A5C06DFE019AA3689DF903105A619B690DF10F
S21400A5D003020193002399428DF8033080F2BF8076
S21400A5E0494201A8FFF75AFEA3680DF10302996BD2
S21400A5F001A8FFF747FEA3680DF10302996B01A8B7
S21400A600FFF740FEA3680DF10302D96B01A8FFF720
S21400A61039FEA3680DF10302D96B01A8FFF732FEDD
S21400A620A3680DF10302996B01A8FFF72BFEA36840
S21400A6300DF10302596B01A8FFF724FEA3680DF184
S21400A6400302196A01A8FFF729FEA3680DF10302A9
S21400A650596A01A8FFF722FE019AA3689DF9031024
S21400A6609A61DB690DF103020193002399428DF88C
S21400A670033078DA494201A8FFF710FEA3680DF10F
S21400A6800302D96B01A8FFF7FDFDA3680DF10302D5
S21400A690D96B01A8FFF7F6FDA3680DF10302D96B8D
S21400A6A001A8FFF7EFFDA3680DF10302196A01A8E0
S21400A6B0FFF7E8FDA3680DF10302996A01A8FFF70A
S21400A6C0EDFDA3680DF10302D96A01A8FFF7E6FDC8
S21400A6D0A3680DF10302196B01A8FFF7DFFDA3685D
S21400A6E00DF10302596B01A8FFF7D8FD019BA16885
S21400A6F09DF90320CB6122EAE2730B6200230193EB
S21400A700082360680133984231D8002A10DA039B88
S21400A710049903F180435242013B41F8232020462E
S21400A720224602A9FEF7D4FD10B94FF0FF3323608E
S21400A73028460EB070BD01A8FFF7A4FD0EE601A8DE
S21400A740FFF7A0FD47E601A8FFF79CFD79E601A804
S21400A750FFF798FDC0E601A8FFF794FD00E701A803
S21400A760FFF790FD40E701A8FFF78CFD86E7019E06
S21400A77041F82360C6E7000038B50D460446FFF7EB
S21400A78098FC032D257027D1164B012563660823F8
S21400A790154AC4E90153E260144AC4E907536262E9
S21400A7A0C4E91353124AC4E90A53A363114B626502
S21400A7B0C4E90F35104A114BC4E90C25A36465643F
S21400A7C0201DFEF78DFBA06504F14C00FEF788FB0C
S21400A7D0C4E91705002038BD2046FFF76AFC084884
S21400A7E0F9E700BFB3A2000080AD020000AD020092
S21400A7F060AD020040AD020020AD02004C08002013
S21400A80080B1FFFF2DE9F041202B8AB080460E462E
S21400A81017461D4609D9002302AA2946384600F0E5
S21400A820FDF8044608BB202502AFD8F800108DF8C6
S21400A83004608DF8055008F1040681B10123022258
S21400A840C8F8003001A9304602F011FA044660B993
S21400A8502A463946304602F00AFA044605E03046F3
S21400A86002F0FAF904460028E8D002A8202100F0F9
S21400A870CBF820460AB0BDE8F0812DE9F043036F1F
S21400A880A3B08046002B36D0002604463746B14695
S21400A890D8F87030BB420CDC002E14BF00256FF0D9
S21400A8A03C05802102A800F0AFF8284623B0BDE89A
S21400A8B0F083D4F88430656F012BCDF8049001AB9B
S21400A8C04FF0800202A9A06F08BF0126A8470546E0
S21400A8D00028E6D1019B5BB102AAF9B24046FFF719
S21400A8E091FF05460028E0D1E36F019A1344E36721
S21400A8F001371434CCE76FF03F05D6E738B50025AE
S21400A900044628220567294674301FF0CAFD2046F3
S21400A91040F8045B02F096F9226F012A0BDC142340
S21400A92003FB024304492020C3E91D1501210A4404
S21400A930C3E92001226738BDE9C500002DE9F041D2
S21400A940202A88B005468846174659D84FF481769F
S21400A950013E52D02846FFF790FF0446C0BB2A4669
S21400A9600121D5F870C0A4453ADC0029F0D0202299
S21400A970002168462E1D1FF094FD6946304602F001
S21400A98088F9044620BB304602F060F9304602F0F3
S21400A99059F92146304602F05FF90446C0B9202234
S21400A9A06946304602F063F9044688B903466A46AB
S21400A9B02021684600F032F8044648B903461421C0
S21400A9C02A6F9A4214DC3A46694640461FF045FD17
S21400A9D02021684600F018F8204608B0BDE8F0814F
S21400A9E0D2E91F030134984238BF00211432BAE777
S21400A9F001FB03560133F067E3E76FF03B04E7E73C
S21400AA006FF03B04E8E700000A4619B1024B00214C
S21400AA101B681847704700BF50080020F0B51C465A
S21400AA209DB0064601A80F46154602F00BF92146D2
S21400AA3001A802F011F9044658B93A46314601A871
S21400AA4002F015F9044620B9294601A802F021F9BA
S21400AA50044601A802F0FAF820461DB0F0BD13B572
S21400AA60044622B10024009400F01CFA0446204656
S21400AA7002B010BD1B0603F0706300F00F00090261
S21400AA80034301F47061120402F470220B43134373
S21400AA90014A1360704700BF0020024C30B501B178
S21400AAA00139074CE568ED03FCD4120743F0004378
S21400AAB002F080521843024342EA0121616030BD31
S21400AAC00020024CF0B58DB005AC84E80700069D6A
S21400AAD01E469D4228BF1D46129815B30BB300278D
S21400AAE000F5181000F241104402CDE90A37631B46
S21400AAF009930CAB43F8185D029593E803008DE8C4
S21400AB0003000CAA059B12E9070000F0B5FEAE4252
S21400AB1007D93946721BA01B0DB0BDE8F04000F007
S21400AB20A9BE0DB0F0BD30B51D4691B001AC84E8AD
S21400AB3007000146DDE90223D8004ABF03326A0057
S21400AB4022F0030204A8FFF78AFF04A800F0C0F969
S21400AB5014992A4601F5181101F241114C02611BA5
S21400AB60002308A8FFF77BFF04F5007100232A46A0
S21400AB70491B0CA8FFF773FF0CA800F0A9F908A959
S21400AB8004A800F07FF911B030BDF0B51F4691B0B3
S21400AB9001AC84E8070016993A46DDE9025601F54D
S21400ABA0181101F241114C02E11B002308A8FFF71F
S21400ABB056FF04F500713A460023C91B0CA8FFF7A0
S21400ABC04EFF0CA800F084F9F30048BFEA1C019978
S21400ABD054BF7A0022F00302334604A8FFF73FFF73
S21400ABE004A800F075F904A908A800F04BF911B004
S21400ABF0F0BD10B58CB005AC84E807000E9A029341
S21400AC0002F5181202F5A0725202CDE909230022BD
S21400AC1006AB93E803008DE803000B920CAA059B95
S21400AC2012E9070000F028FE0CB010BD0122054B0B
S21400AC309A60DA68D203FCD4D86820F00F000004CB
S21400AC40000C70470020024C2DE9F04B4FF0000836
S21400AC508AB003AC84E8070081461C464646059F3A
S21400AC6007AD07F0805B049B434502D80AB0BDE8F9
S21400AC70F08B139B13B9B31E012B0AD9129BCDE997
S21400AC800794099700965BB195E807002346FFF7FF
S21400AC9019FFBBF1000F00D1A1440136A044E2E742
S21400ACA0234695E80700FFF7A4FFF2E7014B186874
S21400ACB0704700BF0040024C014B1868704700BF49
S21400ACC00410024C014B1868704700BF3010024C4D
S21400ACD0014B1860704700BF0810024C014B18600B
S21400ACE0704700BF4010024C014B1860704700BF11
S21400ACF04410024C014B1860704700BF3410024CE1
S21400AD000022014B1A6070470010024C024A13687A
S21400AD1043F00103136070470010024C43F2040234
S21400AD20014B1A60704700BF0010024C024A1368BD
S21400AD3043F03003136070470010024C044B1A684F
S21400AD4042F480721A601A6822F480721A607047A1
S21400AD500010024C024A136843F480631360704785
S21400AD600010024C034A136823F4702343EA0040A1
S21400AD70106070470010024C0268044B1A6042686C
S21400AD805A6082689A60C268DA6070471010024C97
S21400AD90034A1368DB07FCD4024B1860704700BFF9
S21400ADA03010024C2010024C82B01FB504AC04E9EF
S21400ADB007000A9A029907938A4228BF0A46039B0D
S21400ADC00798D90044BF033222F0030222F07041F4
S21400ADD00D4A03F0E0431060099A0C4802F0E04286
S21400ADE042F000520A430260002243F00053019CE6
S21400ADF00B430749426084600B60064B1A6004B040
S21400AE00BDE8104002B070470000024C0800024C3B
S21400AE101800024C3400024C3F22044B1A601022E9
S21400AE2043F8142C03229A60704700BF3000024C8F
S21400AE30024A13689B07FCD4704700BF3C00024CD4
S21400AE40034B1B6813F0240F14BF04200020704728
S21400AE502800024C08B5FFF7F3FF084B1B6823F4E5
S21400AE607F4323F0EF03002B14BF04230023034388
S21400AE701EBF0122024B1A6008BD00BF3C00024CF8
S21400AE80FCFFFF3F032208B5054B186019615A63A3
S21400AE90FFF7C2FFFFF7CCFFBDE80840FFF7DABFB9
S21400AEA00000024C10B522F0704200F11004C0E918
S21400AEB00014826041B1826803F0704313438360DC
S21400AEC0029BC360204610BD836843F08043F6E7CC
S21400AED001234360C36843F02003C360836843F0E4
S21400AEE0005383607047C368DB0658BFC368C368F7
S21400AEF003F00F03042B0ED8012202FA03F313F01B
S21400AF001A0F08D0C36801F01F0143EA0123C3608B
S21400AF108368194481607047426810B5182A034652
S21400AF2009D0202A1BD0102A28D1154A1268D4012D
S21400AF3009D4012012E0124A12689001F9D50A6875
S21400AF4042F008020A600F481A6882424FF000007A
S21400AF500DD10A6842F040020A60586010BD084AE7
S21400AF6012685201E5D50A6842F00402EAE7064C88
S21400AF70A242F3D10A6842F08002EDE70720EDE72F
S21400AF800404024C482000204920002007B50B4648
S21400AF9007490968C90708D50021009202460846F5
S21400AFA000F0A8F903B05DF804FB0120FAE700BF43
S21400AFB00404024C07B50B4607490968C90708D5BB
S21400AFC0009201210246002000F094F903B05DF8DB
S21400AFD004FB0120FAE700BF0404024C1FB5094C2D
S21400AFE02468A4070CD5CDE900120021069C012296
S21400AFF0CDE902340346084600F0A8F904B010BDB7
S21400B0000120FBE70404024C1FB5094C2468A40782
S21400B0100CD5CDE900120122069C1146CDE902347A
S21400B0200346002000F092F904B010BD0120FBE7B3
S21400B0300404024C1FB5094C246864070CD5CDE9FE
S21400B04000120021069C0222CDE90234034608467F
S21400B05000F07CF904B010BD0120FBE70404024CAC
S21400B0601FB5094C246824070CD5CDE90012002131
S21400B070069C0322CDE902340346084600F066F932
S21400B08004B010BD0120FBE70404024C1FB5094CB8
S21400B090246824070CD5069CCDE90012CDE90234BD
S21400B0A0032203460121002000F050F904B010BD31
S21400B0B00120FBE70404024C1346054A1268D20539
S21400B0C004D50A460146002000F07EB901207047EC
S21400B0D00404024C37B515464A6804463AB18C68F3
S21400B0E00093096845EA0403FFF7DCFE04462046A1
S21400B0F003B030BD2DE9F04FD3B0CDE902310421C5
S21400B10000238446CDE9051307CA03AE07AB5E9D50
S21400B110619F629C049683E80700BCF1000F40F034
S21400B120C88031461846FFF7F7FE0646002840F06E
S21400B130BC805D9A0AAB07CA83E807005F9B609AEB
S21400B140494201F00F08002152685B684FF0100A70
S21400B15013445B4203F00F097B680D915B42019339
S21400B160AB681291DA0048BF6B68524642BF0333A1
S21400B17023F003036B60A368DB0041BF63680333FF
S21400B18023F0030363605F9B5B680093609BD3F8C8
S21400B19004B0009B5B444B44CDE90E316B685B42C8
S21400B1A003F00F03CDE91013636815915B4203F0BB
S21400B1B00F03CDE9131316AB18461FF072F95D9A0C
S21400B1C052685AB97A684AB9009A3AB9BBF1000F80
S21400B1D004D1D046CDE90A0ACDF830B011234FF09D
S21400B1E0005204A932A8FFF775FF40F611034FF08E
S21400B1F0005207A9FFF76EFF42F611034FF0005208
S21400B2005C99FFF767FF44F611034FF0005202996E
S21400B210FFF760FF412300225F99FFF75BFF4FEACD
S21400B220092343F041034FF000526099FFF752FFA5
S21400B2304FEA082343F001034FF000520AA9FFF734
S21400B24049FF019B4FF000521B0203F4706343F06A
S21400B25001033946FFF73EFF1038FFF739FE00239B
S21400B2600DA91A461AA8FFF735FF002329461A46E5
S21400B270FFF730FF002310A91A46FFF72BFF002325
S21400B28021461A46FFF726FF002313A91A46FFF7A2
S21400B29021FF002363991A46FFF71CFF1038FFF7BB
S21400B2A017FE1AA932A8FFF7EDFD304653B0BDE8E9
S21400B2B0F08F0726F9E70000F0B505460E4617465C
S21400B2C08DB00B4A09AC07CA84E80700CDE90634FE
S21400B2D0CDE90444CDE90244CDE900472346324691
S21400B2E04FF480312846FFF705FF0DB0F0BD00BFD4
S21400B2F0A0AD0200F0B594465A688DB01C46130700
S21400B3000646129D1BD1D2B16B689A4217D10D4BDF
S21400B3100D4A53F8217009AB07CA83E80700CDE948
S21400B3200633CDE90433CDE90253CDE90034624655
S21400B33047F480713046FFF7DDFE0DB0F0BD072004
S21400B340FBE700BFD0AD0200A0AD02002DE9F04340
S21400B3508DB09846DDE91467DDE9165973688446B2
S21400B360180728D13BB37868834224D16B68102B2A
S21400B37021D1D9F80430102B1DD1104B53F821E001
S21400B3800F4B53F822400F4A09AB07CA83E8070061
S21400B39044F03001CDE90639CDE90433CDE9027336
S21400B3A0CDE90056424641EA0E016046FFF7A2FE8E
S21400B3B00DB0BDE8F0830720FAE700BFD0AD02006D
S21400B3C0ACAD0200A0AD020010B45C68102C03D136
S21400B3D05DF8044BFFF770BF07205DF8044B70471D
S21400B3E082B030B587B0149C03AD442C85E80700C6
S21400B3F00B9358D8049A04EB8403934203D0062395
S21400B4006343934251D10C9BA3424ED10F9BB3EBA7
S21400B410440F4AD1129A934247D1159B01222146E6
S21400B4202220FFF73BFB002306220E210C20FFF70D
S21400B43021FB0123CDE90033234695E80700FFF7FB
S21400B44003FC0E230BAA009307CA2346FFF73AFB1A
S21400B4500C23174D00930EAA234607CAFFF763FB7B
S21400B4606B6823F07F0343F026036B60FFF7DEFB79
S21400B47030B10625284607B0BDE8304002B0704718
S21400B4806B6823F07F0343F022036B60FFF7CEFB6D
S21400B49005460028EDD1062311AA009307CA2346C5
S21400B4A0FFF773FBE6E70125E4E70725E2E700BFC1
S21400B4B00020024C82B000B589B00DF1200C0CE9DA
S21400B4C007000B93069B442B13D802AB0EAA92E8F8
S21400B4D0030083E803005CE902018DE803000BAA81
S21400B4E0059B07CA00F013FA09B05DF804EB02B03A
S21400B4F070470120F8E782B070B586B0119C03ADA6
S21400B500442C85E807000B933BD80C9BB3EB440F09
S21400B51039D10F9EB44236D106236343049A934230
S21400B52003D004EB840393422DD1129B01222146C3
S21400B5302220FFF7B3FA0123CDE9003395E8070090
S21400B5400E252346FFF780FB00950EAA07CA334652
S21400B550FFF7B8FA0023294606220220FFF78AFAE8
S21400B560FFF764FB0623054678B900930BAA23462B
S21400B57007CAFFF70AFB284606B0BDE8704002B0CF
S21400B58070470125F7E70725F5E71D46F3E782B084
S21400B59070B590B0159303461B9E09AC3344CDE9B5
S21400B5A00D36002302AD0F931DAB84E8070093E829
S21400B5B0030085E8030019AB93E803008DE8030059
S21400B5C010AA189B12E90700FFF774FF88B91C9BA6
S21400B5D0CDE9056318AB93E8070085E8070016ABCE
S21400B5E093E803008DE80300159B94E80700FFF737
S21400B5F082FF10B0BDE8704002B070470138C0B29C
S21400B60006289ABF014B185C002070470CB0020059
S21400B6100138C0B206289ABF014B185C002070475C
S21400B62013B002000138C0B206289ABF014B185C5E
S21400B630002070471AB002002DE9F04F8146BBB0DB
S21400B64003A880E80E0009F1FF339DF810A1049FBF
S21400B6500D46DDF81480062B00F2E480DFE803F0E8
S21400B660041E242A30363C006F4B1B68D80703D4D0
S21400B67001203BB0BDE8F08F012307930023BAF109
S21400B680010FCDE908332DD0BAF1020F00F09380F8
S21400B6904846FFF7C7FF6324064630E0624B1B6848
S21400B6A09907E5D50223E8E75F4B1B685A07DFD505
S21400B6B00423E2E75C4B1B681B07D9D50823DCE7AD
S21400B6C0594B1B68DE06D3D51023D6E7564B1B68AE
S21400B6D09C06CDD52023D0E7534B1B685806C7D50C
S21400B6E04023CAE7504B1B68D903C1D5079B484681
S21400B6F043F4C0630793FFF781FF03240646132332
S21400B7000422009307A94FF0005312A8FFF7CAFBC4
S21400B71048F00053009429463A46FFF7C3FB4FF023
S21400B7200C0B05460024DDF81481469B0BFB038BAF
S21400B730D8455ED1BAF1030F0BD14846FFF772FF2A
S21400B74002464846FFF764FFBA426BD101382042F2
S21400B75068D1002C5ED10323224600932846234658
S21400B76008A9FFF79FFB04240546103D2846FFF76F
S21400B770AFFB21462846FFF7B6FB489AB24228BFE1
S21400B78032461446002A4BD00023479900930AA855
S21400B790499BFFF787FB321B04D000230093194612
S21400B7A0FFF780FB1038FFF793FB12A80AA9FFF7F4
S21400B7B069FB00205DE71C4B1A6892037FF558AFC3
S21400B7C01B68DB037FF554AF77B17C4204F00304BB
S21400B7D0079B484643F4E0630793FFF70FFF2402F6
S21400B7E044F0A30406468AE7B846042708AD3C465C
S21400B7F0EEE7D8F8042014444AB103230093284601
S21400B800D8F80830D8F80010FFF74CFB054608F1CA
S21400B8100C088DE714F0030418BFC4F10404A4E771
S21400B8200AA8B8E7072024E70C04024C70B58AB0D3
S21400B83007AC84E80E0003AD064694E8070085E8EA
S21400B8400B00012302930EAB01930323009394E8AD
S21400B8500E003046FFF7F0FE0AB070BD0144013915
S21400B8600B1A002B01DA104670470B781A440A7040
S21400B8701212F4E71EF015BE82B02DE9F0418AB030
S21400B88005AD85E807001193079B5B0021D4DDF822
S21400B8901880149C139B444528BF444613F08053DD
S21400B8A0129A02D1944228BF144694B10F2C15D98F
S21400B8B0029412AB93E803008DE80300119B95E811
S21400B8C00700FFF771FAFFF7A7FAFFF7B1FAFFF7DD
