:1060000000800020A19E00009D9E00009D9E00003B
:106010003B9000009D9E00009D9E00009D9E000004
:106020009D9E00009D9E00009D9E00009D9E000084
:106030009D9E00009D9E00009D9E00009D9E000074
:106040009D9E00009D9E00009D9E00009D9E000064
:106050009D9E00009D9E00009D9E00009D9E000054
:106060009D9E00009D9E00009D9E00009D9E000044
:106070009D9E00009D9E00009D9E00009D9E000034
:106080009D9E00009D9E00009D9E00009D9E000024
:106090009D9E00009D9E00009D9E00009D9E000014
:1060A0009D9E00009D9E00009D9E00009D9E000004
:1060B0009D9E000095E500009D9E00008DF0000073
:1060C0003DF0000039F0000059E7000089F00000C1
:1060D00041F0000061F0000045F00000E9F0000030
:1060E00069D40000B1D40000D1F000009D9E0000F2
:1060F0009D9E00009D9E00009D9E00009D9E0000B4
:106100009D9E00009D9E00009D9E00009D9E0000A3
:106110009D9E00009D9E00009D9E00009D9E000093
:106120009D9E00009D9E00009D9E00009D9E000083
:106130009D9E00009D9E00009D9E00009D9E000073
:1061400010B5054C237833B9044B13B1044800E073
:1061500000BF0123237010BD1001002000000000CB
:106160009C3D010008B5034B1BB10349034800E007
:1061700000BF08BD00000000140100209C3D01008C
:10618000154B002B08BF134B9D46A3F5803A002109
:106190008B460F461348144A121A09F0C2FD0F4BE2
:1061A000002B00D098470E4B002B00D098470020C2
:1061B000002104000D000D48002802D00C4800E02A
:1061C00000BF09F07FFD2000290002F0CDFF09F09B
:1061D00065FD00BF000008000080002000000000F6
:1061E0000000000010010020481C002000000000FA
:1061F0000000000037B50446684680E80600251D0B
:1062000003C885E805002373069B2361BDF81C3095
:10621000A38200232360084B1A6812B91C6004E0B3
:106220000A4611680029FBD114609888013080B2B9
:10623000988003B030BD00BF3007002007B5037958
:10624000054A0193036806CA009308300223FFF74A
:10625000D1FF03B05DF804FB8000010070B5282574
:106260002B68ADF50C7DB3F5C04F05D34FF4017429
:1062700020460DF50C7D70BD1B6B002BF6D05B6AC4
:106280004FF40B7201A90020984704460028EFD173
:1062900040F201262B68B3F5C04FE7D21B6BB3F574
:1062A000C04FE3D29B6A002101A89847B042F1D0C9
:1062B00040F20323984218BF0446D9E730B541F2B3
:1062C00068024FF400340F4B9C5041F671321C6F42
:1062D00003F52033C4F3033404FB0000DD690A4CEA
:1062E000DA639A68A04205F4803522F4401203D99B
:1062F000012918BF42F480129A600DB10022DA63BE
:1063000030BD00BF00800040005A6202094B0022ED
:10631000996C30B5DC6C234642EA0104220C827091
:106320001A0A210AC2701A0C1B0E04704170027105
:10633000437130BD0080E00F202A0B681EBF4FF074
:10634000FF3191408B43590801F055315B1A03F03E
:1063500033319B0803F033330B44017803EB131301
:106360000A444FF0013103F00F334B43A2EB1363A8
:106370000370704773B50026044602AD05F8016D41
:10638000011D1B222846FFF7D7FF60689DF80730E4
:10639000B3EBD06F03D120F0784002B070BD284637
:1063A0001B2204F108018DF80760FFF7C5FFA06804
:1063B0009DF80730B3EBD06F01D1C043EBE74FF04E
:1063C000FF30EAE74BF29A22036810B5B2EB134FA5
:1063D000044611D19BB2012B0ED1FFF7CBFF431C1A
:1063E0000AD04FF6FF72E068030C93420AD180B2E4
:1063F000C01A18BF012010BD236801330CBF032051
:106400000420F8E70220F6E737B5054601F10C0451
:10641000436901A9012220469847BDF8043002A92A
:1064200041F8083D0122AB692046984703B030BDD2
:106430002DE9F043054689B09946036908460E46A2
:10644000174698470446002867D1D9F804304FEA28
:1064500053285FEA580804F1010366D199F8032034
:1064600099F802301203DB0203F4006302F4805255
:106470001A43B9F800306403C3F30A03134404F465
:1064800060441C442B4B6FEA0444039327F0784389
:10649000FF431B2202A901A802938DF80480FFF795
:1064A0004BFF9DF80420029B08A843EAC26300F852
:1064B0001D8D1B2201A927F0784704930197FFF750
:1064C0003BFF9DF80320019B6FEA144443EAC2633B
:1064D00005934FF0FF3308A941F8044D06930122BC
:1064E000AB6906F110009847AB690446012205A983
:1064F00006F108009847AB69002818BF044601223E
:1065000004A9301D9847AB69002818BF0446012232
:1065100003A93046984750B91CB131462846FFF7C9
:1065200073FF204609B0BDE8F0831C4691E704469E
:10653000F3E700BF01009AB2036803F07F03012B69
:1065400003D8406820F07C407047072B8CBFD81FD1
:106550000020704741F268034FF400311E4A70B5C5
:10656000D15041F671331D4C0122E669E36341F2DB
:106570000C03E250022360610546236100212120C3
:1065800006F4803609F08CFC18B90146212009F088
:1065900087FC42F20C030122E2500EB10023E363B8
:1065A000431C02D018B10E4800E00E4870BD0E4BDF
:1065B0009B680A3303F01F020123934023F0030377
:1065C0002B44AB4201D10020F0E755F8042B0132F7
:1065D000F7D00648EAE700BF008000400000034013
:1065E00024E000F021E000F00080E00F0EE000F079
:1065F000002310B59A4201D1002010BD50F823406D
:1066000041F823400133F5E77047000041F671324D
:10661000074B0121DA6342F20C02995000224FF439
:106620000031DA6342F26803024AD150704700BF7A
:10663000000003400080004041F268034FF4003145
:10664000054A0020D15041F67132044B0121DA6332
:1066500042F20C0299507047008000400000034055
:106660002DE9F0418646406800283BD0DEF80070F6
:10667000904600243E4657F834500134C5F3130CBD
:10668000013501D0614532D0844206F10806F2D1CD
:106690003868013031D0002507F1080606E057F8C8
:1066A00035203046013206F1080627D00135A542D3
:1066B000F5D1032B16D0DEF800703868C0F3075010
:1066C000032823D0002407F1080608E057F8340017
:1066D000B446C0F30750032806F1080617D001346A
:1066E000A542F3D101238EF80830BDE8F08141EADC
:1066F0000351C6E90018BDE8F0813846C1F3130123
:1067000041EA0353C0E90038BDE8F081BC46C1F35B
:10671000130141EA0353CCE90038BDE8F0810023BE
:106720004FF0FF3230B544689C4202D1002303721F
:1067300030BD016801EBC30541F833206A600133C5
:10674000F2E70000EFF3108272B6034B1A600368A1
:106750000846DB68184700BFCC0D002070B5002547
:10676000044686B00562E369AB4202D8206A06B0EF
:1067700070BD666C2068E36B05225B6901A906FBAE
:106780000500984701A8FFF71DFE012898BF236A5E
:1067900005F101059CBF01332362E4E7F7B5074625
:1067A0000E460D467B6C86EA05045B421C40A5EB59
:1067B000060001D003B0F0BDFB6B01225B6901A9AB
:1067C00028469847019B013301D10435EAE720466A
:1067D000F0E7F0B5002504462E4687B0E369B342E2
:1067E00002D8284607B0F0BD2368676C052207FB76
:1067F0000637E36B01A95B693846984701A8FFF7A4
:10680000E1FD012809D807F114012046FFF7C6FF72
:10681000636C143B834208BF01350136DEE7F0B5F7
:10682000046806460C1B416C0025B4FBF1F487B0EC
:10683000F36930685A1E9542776C06D3716C3068E4
:1068400001FB0400143007B0F0BD0134B4FBF3F1D8
:1068500003FB1144F36B05225B6901A907FB0400EC
:10686000984701A8FFF7AEFD0128E7D90135DFE71A
:106870002DE9F04F144607460E469946C36B89B082
:106880005B69012205A96068DDF848809847FB6BC9
:1068900001225B6904A930469847059B5A1C06D122
:1068A0000020A360A075607509B0BDE8F08F0121DC
:1068B0004FF0000EA175217E049A04EBC101CE6158
:1068C000A1F820E0606802F07F05B042C2F3D31C5B
:1068D000E9B20CD14FF0FF33C4F800C02175A360BA
:1068E000237D043B022B20D80020A075DCE7206824
:1068F00003F07F036045207D18BF84F816E08842CE
:106900001CBF0020A075012B8CBF00200120012995
:106910008CBF0021012188421CBF0021A175012DDF
:1069200000F2D280012BDBD9D1E002F07F02012AF4
:106930000FD8FB6B02225B6906A93046984706A870
:10694000FFF7FAFD237D032B69D8DFE803F06363CB
:10695000040904A8F4E7CC21227E04EBC2021184CE
:10696000684AD35C049D88F8003005F07F02012A54
:1069700088BF0025237E98BFC5F3C16504EBC30320
:10698000012A83F82250B3F820A000F2A380FB6B09
:1069900002225B6906A93046984700230DF1200BBF
:1069A0000BF8113D202206A95846FFF7C5FC1A2214
:1069B00007A9FFF7C1FC9DF80F30079AB3EB926F60
:1069C0000CBF0123002308226375637D03B9A375FF
:1069D000A37D9BB1BAF1000F15D07B6CB018594262
:1069E00086EA000C1CEA010F1CBF0021A175591E8C
:1069F00001405B1A9A4584BF0023A37594F816B032
:106A0000BBF1000F30D095B9E37D002B75D14FF06D
:106A1000000B16E0227E04EBC2021084A0E7227E67
:106A2000062B04EBC20210849AD901239AE70123B2
:106A300094F819B0E375BBF1000F24D19D4228D121
:106A400065762AF00300304410441AF0030F7B6C83
:106A500018BF04305B4286EA0002134203D031467D
:106A60003846FFF7DCFEA060A27D12B123695344D3
:106A70002361237E012B0ED801332376B9F1000F59
:106A80000CD1A07D10E7012D37D0032D08BFA376D0
:106A9000BDE79B46D5E70023A375F2E7002AF0D0B7
:106AA000E37D002BEDD0BBF1000FEAD1032DE8D040
:106AB000A1684B1CE5D0CDF8008001232246384662
:106AC000FFF7D6FEA075DCE7012B3FF609AF0023E8
:106AD000A37505E700231B2204A906A88DF818302A
:106AE000FFF72AFC9DF81830049AB3EBD26F0CBF65
:106AF000012300230422637567E7A27D4FF0010B99
:106B0000B4E700BFE2FE000013B50C46002100937D
:106B10002176134661682246FFF7AAFE18B1E37D8D
:106B200003B1A07EA075A07D02B010BDF0B50546F2
:106B3000002687B0EC69013CB44203D80C462046DD
:106B400007B0F0BD01B14C1E6F6C2868EB6B0522DD
:106B50005B6901A907FB0400984701A8FFF732FC15
:106B60000128ECD901362146E4E7F0B504460D468C
:106B7000466CE36B006887B05B69052201A906FBE0
:106B80000500984701A8FFF71DFC012804D801A8BB
:106B9000FFF7F0FB07B0F0BD29462046FFF7C6FF20
:106BA0000646676C2068E36B05225B6901A907FB59
:106BB0000600984701A8FFF7DDFB431CEAD0B54269
:106BC00038BF0130E6E74369416CDA1D1439B2FB86
:106BD000F1F28069013203EBC202043000EB4200A3
:106BE000DA1CB2FBF1F203EBC2030333B3FBF1F3A4
:106BF000023301FB03007047214BD3F8F821024018
:106C00001CD1F0B4D3F8FC5103F5FC74641BA41040
:106C1000022CD3F8006212D0032C29D0012C1AD0F8
:106C2000184C05F10C026468C5E90040C3F8FC216A
:106C3000A96033680C333360F0BC7047704704229E
:106C4000104C6468686098182C601960C3F8FC01E7
:106C50003260F0BC70471A4608240A4F7F682F60E4
:106C600042F8080B5960C3F8FC213460F0BC70474F
:106C7000044C6468A960C5E90040C3F8FC31E7E74B
:106C800090150020001000E0837DDB0701D5808A8D
:106C90007047D0E901239B1A44BF828A9B1898B29F
:106CA00070470000044B5A6D22B95865A3F858107C
:106CB0000120704700207047D00600200A20D0B580
:106CC0000B4CE38C584308F04DFD0646A08C0F4654
:106CD00008F048FD0022074B08F0AEFD02460B46C7
:106CE0003046394608F0D2FE08F0B8FF2083D0BD08
:106CF000D00600200000F43F40F2E243074A10B5FE
:106D00001468584303FB0141536800F5807001EBA0
:106D1000500118441160506010BD00BFD006002023
:106D20000022134670B58AB0D910415C03F0070405
:106D30002141CC0742BF0AA9891801F8283C03F178
:106D4000010348BF0132252BEED100230D4DD91090
:106D5000415C03F007042141C90707D5E91881F810
:106D60002A300133252BF2D10AB070BD93FBF2F12A
:106D700002FB11310AAE314411F8286CEC1884F88A
:106D80002A60EEE7D0060020024BD86880B280026D
:106D9000704700BF0080E00F0C4B10B50C4CE41A9C
:106DA0000C4B1C4424F4FF5424F01F04FFF7ECFFA9
:106DB000A04202D80024204610BD2046FFF702FB67
:106DC0000128F8D904F50054F0E700BF10000020B6
:106DD0000C010020E75D01007FB502466D460D4BBA
:106DE00003F110062C4618685968083303C4B342EF
:106DF0002546F7D1531E04A90F3211F8014D13F89F
:106E0000010F844204D19342F7D1012004B070BD38
:106E10000020FBE7B0FE000070B5154D286810BBE0
:106E2000144B154CE41A154B1C4424F4FF5424F065
:106E30001F04FFF7A9FF844214D2666BA6B1FFF7C7
:106E4000A3FF864210D2FFF79FFF06F14003834263
:106E50000AD83046FFF7C0FF30B1F36933F00803BA
:106E600002D02C60286870BD04F50054E1E700BF33
:106E700090010020100000200C010020E75D0100BF
:106E8000BFF34F8F0549064BCA6802F4E062134313
:106E9000CB60BFF34F8F00BFFDE700BF00ED00E008
:106EA0000400FA0528231B68B3F5C04F05D21B6BFD
:106EB000B3F5C04F01D2DB6B184740F201107047A9
:106EC00028231B68B3F5C04F05D21B6BB3F5C04F29
:106ED00001D29B6B184740F20110704728231B68B2
:106EE000B3F5C04F03D21968064A914203D000237C
:106EF000037083607047012202709A689B69426048
:106F0000F7E700BF07B0CD5E10B50C4630B90448B6
:106F1000FFF7E4FF034B23600423A380002010BD90
:106F2000EC010020F001002010B508B3114B1A68E5
:106F3000918881421CD399880024814281BF01211C
:106F4000126899809A6099889A682AB904B19A60FF
:106F50004FF6FF71998009E0884204D00131126830
:106F600089B20124F1E70CB198809A60104610BDF7
:106F70000022FBE73807002037B50D461446FFF71F
:106F8000D3FFD8B10369828A63B14FF6FE718A429A
:106F900008D1002069460090ADF80400984738B148
:106FA00003B030BD2B602280286848B92080F7E705
:106FB000009B2B60BDF804302380F5E70120EFE74C
:106FC0000020EDE737B50D461446FFF7ADFF70B171
:106FD000036973B14FF6FE72818A914209D100951F
:106FE000ADF8044069460120984703B030BD012048
:106FF000FBE70E20F9E7000037B504460379124A93
:107000000333019300F14403009306CA02231430B2
:10701000FFF7F0F8228A237A0192E26804F12C004B
:10702000009294E80600FFF7E5F80546237AA4F8F5
:10703000450084F844302279216804F1470008F0C3
:1070400065FE284603B030BD7800010070B50E4CD7
:107050000E4B04F1100206460D4692E8030083E849
:1070600003001846FFF7EAF80222094B18341A7297
:1070700094E80300DE6083E803001D821846BDE843
:107080007040FFF7B9BF00BFB0FE00002815002018
:10709000180500202DE9F041054616468846FFF701
:1070A000F3FDAB8A181A80B2864228BF06463746DF
:1070B0005FB93EB1D5E901329A4202BFAB7D43F0E0
:1070C0000103AB753046BDE8F081AB8A2C68A86837
:1070D0001C44241AA3B2BB428CBF3C46A4B2224635
:1070E000414608F013FEAB682968AA8A23440A4483
:1070F000A0449342A7EB0404AB60A7B228BFA960E9
:10710000D6E770B5044615461E4611B3FFF7BCFD21
:10711000A38A181A80B2012829D9E37D63B1E368F4
:10712000628A1A70120A07D02068A18A01330144CA
:107130008B4228BF0346F4E700236382A368022240
:10714000E36004F112012046FFF7A4FFE37D013361
:10715000E375324629462046FFF79CFF638A0344C5
:107160006382E37D13B9238A0344238270BD002028
:10717000FCE72DE9F041164605468846FFF784FDF9
:10718000864228BF0646B6B237464FB92EB1AB7D10
:10719000DA0744BF23F00103AB753046BDE8F08148
:1071A000AB8A2C6869681C44641AA3B2BB428CBFCA
:1071B0003C46A4B22246404608F0A8FD6B68296808
:1071C000AA8A23440A44A0449342A7EB04046B60B8
:1071D000A7B228BF6960D8E770B51E46038A044687
:1071E0001546EBB9C27DDAB10123013A0B70C275C5
:1071F00000F110010222FFF7BCFFE37D9BB1228A60
:107200002946B24228BF32462046FFF7B2FF238A02
:107210001B1A2382E37D13B9638A1B1A638270BD34
:1072200000230B70EBE7638A2382E8E770B50D4615
:10723000A8B9FFF7F1FD446BFFF7EEFD58B1234607
:10724000084C03F14006224618685968083303C207
:10725000B3421446F7D1044B2B600423AB800020CB
:1072600070BD00BF94010020B401002038B5202279
:1072700004460D460C30002108F053FD00234FF06A
:10728000FF32A375C4E90025A260E3756376A37697
:10729000237638BD2DE9F04F0E4600258BB004460D
:1072A0004FF0FF311046C6F3130917469A468DF882
:1072B0001350FFF7DBFF4E456BD12B46E1688B4245
:1072C0000DD0A26802EBC30052F83320551C0DD03C
:1072D000C2F31302914509D141684D1C08D1237CAA
:1072E000002B58D147480BB0BDE8F08F0133E6E7DB
:1072F0003846FFF7BBFF0DF1130301223946204644
:10730000FFF702FC0028EAD09DF813308AF800301D
:107310000020E8E72368ED1A636CB5FBF3F542E063
:107320004046FFF7A3FF0DF11303029A41462046A2
:10733000FFF7EAFB8646D8B1B11C03D0D8F800307D
:10734000B34215D19DF813302F4A8AF800303B46DE
:1073500002F1280B9446BCE80300DC451860596034
:10736000624603F10803F5D1F346DCF8000018602B
:10737000D8F8081032E0BBF1000FB3D04E45C7D1AA
:107380009AF800307A68314604F10800FFF768F98E
:10739000BEE7B31CA3D1E56A681CBBD1616A204675
:1073A000FFF7C4FB0546B31C18BF0123DFF8588064
:1073B0000293636A626C0393236805A902FB053B91
:1073C000E36B05225B695846984705A8FEF7FAFF6C
:1073D0000BF1140319464FF0000B01934A1C05D022
:1073E000636C019A5B424A40134299D02946204679
:1073F000FFF79CFB039BAB42BDD0BBF1000FBDD19F
:107400000546D6E70BE000F0E80E00202DE9F04F2E
:107410004FF0FF33002589464FF6FF71044600F117
:10742000080687B0C0E90913C362056205633046E8
:10743000FFF775F92046FFF791F900285BD14FF669
:10744000FF7BD4F824800027D84514BF454600258B
:10745000E3699F4252D32046FFF780F9002833D1D9
:10746000B34D2046FFF7B5F923E12368E26B606C6A
:10747000576901A9052200FB0530B84701A8FEF7AE
:10748000A1FF0128074603D0C31EDBB2012B12D88F
:1074900029462046FFF769FB0246012F2168676CE9
:1074A00008BF0132434607FB0511E06BFEF7C0FF42
:1074B0002046FFF753F90135E3699D42D5D32046B5
:1074C000FFF74CF90028BAD000254FF0FF384FF6EF
:1074D000FF73C1462F46C4E90853E3699F423ED378
:1074E000A5EB0805012D5DD84FF6FF72636A934244
:1074F0006DD1904DB5E704F14008DDE7636CE26BB8
:107500002068D2F814C001A9052203FB0500E0475A
:1075100001A8FEF757FF02280FD0D84515D109F171
:107520000102606C216804F1400300FB0511E06B6F
:10753000FEF77EFF2046FFF711F9E3690135B5FB41
:10754000F3F2013703FB125582E729462046FFF785
:107550000CFBB0F1FF3F08BF4846421CE1E7636CFB
:10756000E26B2068D2F814C001A9052203FB0700D2
:10757000E04701A8FEF726FF824601A8FEF7FAFEC3
:10758000BAF1010F0CD8484538BF6762804528BF63
:107590008046854238BF05468146236A013323620F
:1075A00001379AE74FF6FF7300256362E3699D4256
:1075B0009AD2676C2068E36B05225B6901A907FB1F
:1075C0000500984701A8FEF7D5FE0135EEE7E26B0E
:1075D000676C2068556901A9052207FB0300A847CD
:1075E00001A8FEF7C7FE616C2268636A524D01FB79
:1075F00003231433A3624FF0FF332A46E3626FF094
:1076000001010DF103032046FFF744FE002854D189
:10761000AB68E362E56A20462946FFF7BFF82063BE
:1076200020B9E16A2046FFF7FAF8E06229462046D1
:10763000FFF7F5F80546A36A9D4240D16369656C82
:107640002046A5F11402DD1CB5FBF2F503EBC505E0
:107650000335B5FBF2F5FFF7BCF8AB1C9842814649
:107660003FD2616A2046FFF761FA01268046033562
:1076700004F1400A731E994512D82368676C0522ED
:1076800007FB0837E36B01A95B693846984701A8F7
:10769000FEF770FE534602463946E06BFEF7C8FE21
:1076A00041462046FFF742FA0136B5428046E1D115
:1076B000224D284607B0BDE8F08FA36AA9E7294606
:1076C0002046FFF76BF8236B2946034407462363E4
:1076D0002046FFF7A4F80546002FACD1C4E90B07FC
:1076E000A9E73046FFF71BF8154DA16AE36A9942F6
:1076F00001D04B1C01D10025B3E62846FFF7B6FDAB
:107700000DF10303012229462046FFF7FDF930B1B0
:10771000D5E900129DF803303046FEF7A1FFA968B5
:107720004A1CE3D169682046FFF779F80146DDE796
:1077300003E000F016E000F0BC0E002013E000F0C3
:10774000140F00202DE9F04F41F268038A464FF4F0
:1077500000314FEA820B354A354C85B00190D1504B
:10776000E369012203F48033029341F67133E3634A
:1077700041F20C030746D1465E46E2500EB9304650
:107780002FE007F5005525F4FF5525F01F0567612B
:10779000ED1BE269B54228BF3546520735D4D9F80A
:1077A000001009F10402A161A5F10408B8F1000F6D
:1077B0000ED1042241462261212008F071FB80B9DC
:1077C000212008F06DFB60B92F44A944761BD5E752
:1077D00008210846039208F063FB039A78B104235A
:1077E000236142F20C020121114B9950029A0AB115
:1077F0000022DA63431C0BD070B10E4809E052F846
:10780000041BA8F10408A161D0E74FF0FF30E8E7BE
:10781000094805B0BDE8F08F5A465146019808F076
:1078200091FA0028054808BF0020F2E700800040D8
:107830000000034024E000F021E000F010E000F040
:107840002DE9F04385B088466946044681E80C007E
:107850000C9EBDF83470FFF767FB4FF6FE790546C6
:107860000DB1444505D94FF6FF74204605B0BDE87B
:10787000F0832B7A9DF804209A421ED10099686803
:1078800008F060FAC8B9002EEFD02B69AA8AA3B11C
:107890004A4509D10290ADF80C0002A9984760B999
:1078A000029BBDF80C2043B1974206D13A461946D7
:1078B000304608F047FA0028D7D001342D68A4B22A
:1078C000CEE70000F0B5354C85B011464FF4867018
:1078D0001F461646FFF790F9236925462BB94FF44A
:1078E0008370FFF789F905B0F0BD002F08BF082E9F
:1078F00021D16A460321206802F09EFE6368606120
:107900005B7A04F1180123769DF800300220DA1F1B
:1079100053425341627E63F30002029B6276E3614D
:10792000BDF8023063832369984701220021206853
:1079300002F08AFED7E7002F08BFB6F5000F03D18B
:10794000002101209847CEE7002306F4A04213430C
:1079500009D04FF480714FF48170FFF74DF923691E
:1079600000210320EEE7002306F4A062134308D0B1
:1079700001214FF48170FFF73FF92B690021FF20AF
:10798000E0E7002306F02052134319BF012140F223
:10799000011031464FF48370EDE700BF481300201B
:1079A0007FB502238DF80C30064B5A8B5969033290
:1079B0000292186801AA02F043FE019807B05DF830
:1079C00004FB00BF4813002008B500214FF4857068
:1079D000FFF712F90022044B03211A6118680122F3
:1079E000BDE8084002F006BB4813002013B50D4B5C
:1079F00001281B880C4CADF80430ADF8003002BFF4
:107A000002238DF80430042301A9206808BF8DF8F3
:107A1000003002F071FD6946206802F085FD02B079
:107A200010BD00BFD0FE00004813002037B5002273
:107A3000114C437A00926060D0E90021206802F086
:107A40006FFE238CDB050CD563680C4D1A7A297800
:107A5000914206D0012A06D0022A08D063681B7A18
:107A60002B7003B030BD206802F030FEF6E72068CE
:107A700002F032FEF2E700BF481300202D0700207D
:107A8000F0B51A4C85B0637A18480133DBB2272B66
:107A900088BF25236372FFF7C9FFE768657C627DB5
:107AA000134C14494FF400730232206802F0A3FD16
:107AB0006368114A5B7A05F001052846D65CFFF73A
:107AC00095FF0022012300928DF80C30314602AB65
:107AD0002068029702F092FA28B1FFF775FFFFF7CE
:107AE000CFFF05B0F0BD054B2361FAE72C01002064
:107AF00048130020400100204D000100A98600002D
:107B000038B50D4611462C680144A41A224608F0E7
:107B100028F92C6038BD00002DE9F0470C46484993
:107B2000484B0D689246471B4748484A1B1A48482D
:107B30001760034423F4FF5323F01F039F4288463A
:107B4000914676D355443D44FFF726F908B9FFF72F
:107B50001BF9854270D8D8F800000AEB0005B5F58E
:107B6000806F03D982223B4B1A7060E03A4E524636
:107B70002146304408F0CAF8384BC8F800501A685B
:107B80001AB9332D53D9726B1A601B687C199F4246
:107B90001DD8A3421BD203F11002A24247D8DB1B1F
:107BA0001E4433462E4A06F1100153F8040B8B4253
:107BB00042F8040BF9D12A48FFF70EF910B9254B0A
:107BC0008422D1E71022FF21304608F0AAF8254E82
:107BD00005F0030524483368641B044053B938405A
:107BE000C0F500512144FFF75DF9346040B1194BF5
:107BF0008522B9E79C4203D9E11A03F50050F2E768
:107C0000D8F800201449521BD9F80000FFF758F9A2
:107C10000446D8F80020D9F80030521B1344084914
:107C20000D48C9F80030FFF76BFF002CDFD1BDE82D
:107C3000F087084B872297E7064B832294E700BF23
:107C4000401300200C01002010000020780B0020C1
:107C5000E75D0100750B0020400F0020040E00209E
:107C6000F40D00204413002000E0FFFFEFF310802C
:107C700072B6704741F264034FF48031064AD15026
:107C8000064B5B69C3F38512827003F03F021B0B46
:107C900042700370704700BF0080004000C0074082
:107CA00013B5044601A8FFF7E5FF9DF80630012251
:107CB00023804FF4807300206380054B9B680A3358
:107CC00003F01F0302FA03F3636002B010BD00BFAC
:107CD0000080E00FF0B54AB1012530241D4E8D40E3
:107CE00004FB00640BB341F21006A5513024444359
:107CF000072904F1804404F5703419D80F2765680A
:107D00008E00B74025EA070502FA06F6354365609E
:107D100052B9012202FA01F130220E4C02FB00405E
:107D2000A3B141F21003C150F0BD42F21006DCE7EE
:107D30000F2701F18045083DE668AD00AF4026EA17
:107D4000070602FA05F53543E560E1E742F2100364
:107D5000E9E700BF00C00340EFF3108072B6704740
:107D600000B962B67047000010B5034CA01DFEF7C5
:107D7000D7FF0023236010BDD40D002010B5094C9F
:107D8000B4F80710A079FEF7B7FFA368B4F80D1098
:107D9000054AC3F30F239384D184FEF78FFF00239A
:107DA000236010BDD40D0020D0060020034B044AF0
:107DB0009979117500221A60704700BFD40D002018
:107DC000D0060020FFF7CCBF08B5C3680020984755
:107DD000024B1868BDE80840FFF7C2BFCC0D002079
:107DE0002DE9F04FB74F89B03B780646894603929C
:107DF00003F0FF0B002B37D1FEF7CEFF8246FEF7D4
:107E0000C3FFBAF1000F00F01081AF4BA0F5005591
:107E1000D3F80080C3F800B0AC4BA5EB0A0593F88B
:107E200034101C4600297FD01A68924540F0FD802E
:107E30005A68954240F0F9809968A54A914240F00D
:107E4000F480DA68062A40F0F08040F26C725969DA
:107E5000914240F0EA80D96B9E4A914240F0E58021
:107E6000C3F818B001233B70984D95F83430002BBF
:107E700000F0DB8046F48028974E012105F13C009C
:107E8000FEF760FC06AB324641462846FFF702FA91
:107E90000446002840F0D0809DF81830032B00F0F5
:107EA000CB80022B00F0CB803769E86BFFF78CFFAB
:107EB000002C40F0BA80039B1B78BB42C0F0B58019
:107EC00095F834300293002B00F0AF8001218348F5
:107ED000FEF738FC0DF113037F4A41467B48FFF75C
:107EE000D9F9044698B99DF81330012B40F014815C
:107EF0003369BB42C0F00A81D6F804B0DFF8CCA1E8
:107F00000097009ADAF83C30002A40F09A806F4BD4
:107F1000D86BFFF759FF002C40F08780039B1F7040
:107F2000029809B0BDE8F08F402203F11000D3F8A9
:107F300038B007F0F6FE40F26C736361644B04F1F5
:107F40000800A3600623E360C4F838B0C4E900A5C4
:107F5000FEF7E5FB5F4B04F14000E363FFF7A0FE93
:107F6000002867D1626C002A64D06368B3FBF2F327
:107F7000E36194F84330002B57D0656C002D54D04A
:107F8000E369002B51D02268B2FBF5F305FB132304
:107F9000002B4AD1D4F804A0BAFBF5F305FB13A3D8
:107FA000002B42D14948FEF70EFE82453DD340F6F4
:107FB00034726369CC3B934237D8B5F5007F34D334
:107FC00003214648FEF7BEFBD4E90001E36B1B68C2
:107FD00098470546E36B0220DB689847D5B94146D0
:107FE0003A48FFF713FA3E4B0546984204D1414602
:107FF0003648FFF70BFA054665B9636C3348A3F1C1
:108000001408236A03FB08F8FEF7DDFD354B8045B5
:1080100038BF1D46B5FA85F3E06B5B0984F8343050
:10802000FFF7D2FE002D3FF41DAF0023039A029309
:10803000137075E700239BE700272B4C35E70427D7
:1080400033E75B69012205A9584698472249059BF9
:108050000968C3F3D31291425AD103F07F03012B75
:1080600044D905A8FEF768FA4FF004080646009BBD
:108070009E424FD8B208D84446D0EB6B49465B6964
:108080004046984726F0030306F003020192984405
:108090009944019B6BB1DAF83C3001225B6906A977
:1080A000404698474846019A06A907F02FFE019BD3
:1080B0009944009B59469B1B50460093FEF7AFFB2B
:1080C00083461EE7380E00200C040020400E0020DE
:1080D000080E002030000100900E00207C0E0020D1
:1080E00013E000F002E000F00BE000F0DAF83C30C2
:1080F00002225B6906A95846984706A8FEF71CFAB3
:108100004FF008080646B2E70196C2E7054CFEE6C6
:10811000054CFCE6054CFAE6054C064A022B08BF66
:108120001446F4E611E000F022E000F023E000F055
:108130000BE000F00CE000F02DE9F04106460D46A2
:1081400014460C4F0CB9BDE8F081EFF3108872B6FD
:1081500023462A4631463846FEF7D3FF03464046BB
:10816000FFF7FEFD002BEDD0E41AA4B21D4400265B
:10817000E8E700BFB00C0020002313B501F10804AC
:1081800021461A46ADF80430ADF80600083151F822
:10819000100C70B90BB1ADF80420042201200DEBD6
:1081A00002010834FFF7C8FF54F8101C39B902B0B7
:1081B00010BD51F80C3C1A4492B20123E6E734F8A2
:1081C0000C2C0020EDE700007FB500230130CDE945
:1081D0000433064BCDE90101694604200093039264
:1081E000FFF7CAFF07B05DF804FB00BFDA0100200B
:1081F0002822136810B5B3F5C04F0ED2EFF31080EC
:1082000072B6002407490B780C70FFF7A9FD3BB14B
:10821000BDE8104013681B6A18474FF4817010BD09
:108220001846FCE7D00D002001282DE9F34740F067
:108230003E818B88012B40F03C810B681B7813BB7F
:108240009E4A9F4C13609F4A13609F4A13609F4A47
:1082500013609F4A13609F4A13709F4A13609F4A9E
:1082600013602278022A01D1FFF7C2FF0123237095
:1082700000249B4B1C709B4B1C709B4B1C7020461E
:1082800002B0BDE8F087032B40F0FE80964BDFF88C
:1082900030921C78002C4ED199F80030002B00F061
:1082A000E7808C4B1B78082B40F08380834B186849
:1082B000984668B928252B68B3F5C04F62D34FF4B0
:1082C000017041F20804A0420CBF8624802432E0F1
:1082D00010F003060EBF2646C6F10406F6B200EB08
:1082E000060ABAF5806F00F2C980804B3246FF2142
:1082F0001844794F07F015FD7D4A3B6812680AEB78
:1083000003019142C8F800A000F2BC806D4A1568D4
:108310001D445544DFF8B8A125F4FF55DAF80000F4
:1083200025F01F0585420CD9291A00F50050FEF7EB
:10833000B9FD20B18524002389F800309FE7CAF8F1
:10834000005028231B68B3F5C04F18D21B6BB3F540
:10835000C04F14D21D69654AD8F800303968002032
:10836000A84705463B68D8F80020544913449E1B93
:108370005E483E60FFF7C4FB002D9BD0DAE74FF468
:108380008175EFE7FDF76AFF00289AD12B6801900D
:10839000B3F5C04FCED21B6BB3F5C04FCAD29B69A9
:1083A000012101A898470028C4D101224D4B1A7021
:1083B000C1E7002B5ED04A4B1B78002B5CD0474EA8
:1083C000336843B9414B10224A491868FEF778FDDB
:1083D0000028B0D0AEE713F003021CBFC2F10402C4
:1083E000D2B29F18B7F5806F48D84348FF21184490
:1083F00007F097FC414A424B37609B1A414A1344AD
:10840000314A23F4FF53156823F01F03AB42904613
:1084100036D82F44FEF7C0FC08B9FEF7B5FC8742FA
:1084200030D833682A4F1D4425F4FF55386825F0AD
:108430001F05854208D9291A00F50050FEF732FDC4
:1084400000287FF477AF3D6032682B49D8F80000F0
:10845000FEF736FD0546D8F8003032681F49134450
:108460002548C8F80030FFF74BFB002DAAD061E784
:10847000812460E784245EE780245CE782245AE755
:10848000872458E7832456E7042B14D113230221B1
:108490001D4C637020462170FEF704FC1B4A1C4BE8
:1084A000128905329A801B4A1A6062789A710024F8
:1084B000E5E60D24E3E60624E1E600BF700B0020AC
:1084C000760B002088150020780B0020040E002079
:1084D00044130020D40100207C0B00204013002016
:1084E000740B0020E1010020750B002070070020B4
:1084F0008C150020F40D0020400F002010000020FB
:108500000C010020E75D0100E80D0020D0060020EE
:10851000D40D0020A58B000028231A6810B5B2F5F1
:10852000C04F0ED2EFF3108072B60124074A1178C3
:108530001470FFF715FC39B9BDE810401B68DB6902
:1085400018474FF4817010BD0020FCE7D00D0020CB
:108550000B4A08B5937E4FF0005443F040039376E6
:108560000022084B1A70084B1B782BB1FFF7D4FF81
:10857000064B2360FEF784FC2360FEF781FC00BFFE
:10858000D00600202C070020E101002002020FF09D
:1085900010B5134CA37E5B0621D4FFF715FA40F209
:1085A000E24225202168A38C02FB031294F84F10AD
:1085B0002260A27A0A4492FBF0F100FB11220A2108
:1085C000A272228901322281626801FB0323636067
:1085D000238B5A1E228313B90820FFF7B9FF10BD61
:1085E000D00600202DE9FF41294C40F601002189E9
:1085F000FEF702FBA37E13F0400242D143F00103D9
:1086000003F0FD0362F38203224AA376136823B1C9
:1086100021899288914200D19847A37A1E4F234422
:1086200093F82A301D486375FFF700FAD4E9005427
:108630007B6864085B7A1A4A2E1B012012F80380BB
:108640006435FFF7D3F900960026254401246A46D5
:1086500041463346386802958DF804608DF80C6009
:108660008DF80D408DF80E6001F0F2FC05462246B3
:108670003146386801F0E8FF35B1FFF789FFFFF7B1
:10868000B1FF04B0BDE8F081064B3B61F9E700BFE4
:10869000D0060020D40D002048130020DC06002066
:1086A0004D0001000D88000002282DE9F0411FD087
:1086B00002D8012807D0FEE7032800F09C80FF289D
:1086C00000F09980F7E74D4C637C980707D5FFF7DA
:1086D0007BF9FFF7D5F9637C6FF341036374637C27
:1086E000990701D4DA0764D4BDE8F041FFF7C8B9AF
:1086F0004B784C68DB077ED5227802F00F07032FFA
:1087000059D0052F77D13E4904F108008B7B03F047
:108710000103B3EBD21F4CD10622083107F012FB44
:108720008046002845D1FFF74FF9FFF739F9354D5D
:10873000414606465C22284607F0F3FAAB7E2F83BB
:1087400043F02003AB76627E237E012743EA0223B7
:10875000AB84627F237F04F11E0043EA0223EB8493
:1087600094F82330C3F3040385F84F3094F8233092
:10877000C3F3421385F850301B232B85FEF7D0FA44
:10878000D4F80E30E27CEB60A37C2E6043EA022337
:10879000227D2F7543EA02432B6195F84F30607DAF
:1087A000AB72E18A3944FEF7A7FAFFF71BFF164BBD
:1087B0001F70BDE8F081124D04F10800AB7B03F09F
:1087C0000103B3EBD21FF4D1062205F1080107F033
:1087D000B9FA0028EDD1094C4FF4007394F83D200C
:1087E00004F13C010232286801F005FF637C43F08C
:1087F00002036374DDE7FFF7E7F875E72C0100205B
:1088000048130020D00600202C07002002282DE964
:10881000F7430F460BD003D8012800F0B281FEE7E2
:10882000032800F0B681FF2800F0B381F7E748780D
:108830004E6810F00104BA4D61D14FF0FF3140F69F
:108840000300FEF7D9F92646AB7EB64C13F0200F95
:1088500012D0696D6FF34513AB76002900F09F804D
:10886000237895F8582043F0030323706270A01C0E
:1088700007F04CFA00236B65AB48FEF705FA0030B1
:1088800018BF0120AA7E237860F34102C2F30011D1
:10889000AA7661F38203C2F3C00262F3C30360F3FA
:1088A00004132370218840F60200FEF7A5F96278D0
:1088B000DFF8988202324FF400739A49D2B2D8F8A6
:1088C000000001F098FEAB7E7C68D90709D56FF3F4
:1088D0000003AB7600236B60FFF762F82860FEF7B9
:1088E000EDF94EB1237803F00303022B00F0318140
:1088F0006DD8012B00F02C8103B0BDE8F0833188E6
:1089000040F60300FEF778F93378A97EC3F300132D
:1089100096F8008063F38201A976C8F3C003C1F31F
:1089200000118B4206D108F00303022B05D019D8A1
:10893000012B31D00026344615E0A146767896B159
:108940007A48848AFEF7A0F9201A80B2B9F1000FA4
:1089500004D0022892BF0020023880B286428CBF29
:10896000002401242646AB7EC8F38008C3F3C0026E
:10897000904507D082F0010262F3C303DBB243F0FB
:108980002003AB76002C3FF45FAFAB7E81F001019A
:1089900061F30413AB7657E74FF00009CEE795F883
:1089A0002830A21C0DF107015F48FEF715FCC0B28C
:1089B00058B19DF80730002B0CBF0122022223780A
:1089C000607062F30103237056E70122F7E7A37892
:1089D000022B65D011D8002B4DD0012B38D0544A32
:1089E000127822B1162B7FD0182B00F08C80072232
:1089F000504802210270437027E00C2B18D0142B32
:108A000056D0082BEBD1B8F8201054F8035FC8B249
:108A100005EA0002474801F47F4142EA01050446A5
:108A20000921002304F8011BC0F8015063600CE029
:108A300040484FF0FF3203700123827043700222DE
:108A4000037100230621C2704371FEF72BF953E72F
:108A5000617A237A384A43EA0123938013463749DF
:108A600043F8061B54F8031FC2F80610A2889A8028
:108A7000A2799A7140E7627B237B2F4943EA022364
:108A80008B800B462E4A43F8062B54F8032FC1F86F
:108A9000062062685A6022891A81A27A9A722BE7AC
:108AA0002A89254B05329A80264A1A60E278E0E747
:108AB000B4F80530B4F80320DB08934228BF13460E
:108AC0002B8515231B4800216FF004046FF027024B
:108AD00003700723817081714470C2700371447107
:108AE000C27103720921B0E72279E378114813407B
:108AF00003F00303022B18BF0123172243700270F7
:108B000083700321A1E76279A1790B4B42EA01222C
:108B10009A800D4A1A60D4F80320C3F80620EBE6C9
:108B2000D006002094170020B00C0020980B0020E5
:108B3000C80D0020E80D0020D40D0020697D000044
:108B40007D7D0000A58B0000AD7D00004813002056
:108B500000261248A51C818AFEF796F8081A647848
:108B600080B226B1022892BF0020023880B2A3B2A0
:108B700083423FF6C1AE2A4631460848FEF7C1FAA5
:108B8000BAE6074B9B7E9A073FF5B6AE5B073FF50B
:108B9000B3AEFFF7FDFCFFF725FDADE6980B002017
:108BA000D006002008B5024B9879FFF7D1FC00BF32
:108BB000D40D00202DE9F04F012891B040F004823F
:108BC0008A88002A00F00282A44B93F800A09846FD
:108BD000BAF1000F00F0FC81A14B1C781E465CB975
:108BE000A048057802903DB99F4D28681718B7F541
:108BF000806F05D982241C70204611B0BDE8F08F2B
:108C0000DFF880920968484407F080F8BAF1020F53
:108C10002F6034D0032FEFD9944F3846FEF75EF91A
:108C20003B78D9F80020012B3FD17B68190E012930
:108C300003D1C3F307430A2B44D98D4B9A4237D152
:108C4000BB68DA033CD5022388F80030FFF764FCE8
:108C500028231B68B3F5C04F07D21B6BB3F5C04F79
:108C600003D29B6809A900209847824B099A1A6091
:108C7000814B0A9A1A6098F80030022BBCD17F4AC7
:108C800013789046082B40F0B6807D482B68016829
:108C9000794F03F0030A5A183F68A2EB0A02BA425E
:108CA000814611D983243470A6E7714B9A4207D0CC
:108CB000842333703378002B9ED033701C469BE79F
:108CC0008623F6E78823F8E76A4ADFF8C4B1176815
:108CD000DBF800001F440F44A7EB0A0727F4FF57F7
:108CE00027F01F07874209D9391A00F50050FEF70F
:108CF000D9F808B18524D6E7CBF8007028231B6883
:108D0000B3F5C04F74D21A6BB2F5C04F70D22B6856
:108D10001769A3EB0A035B4AD9F800100020B84793
:108D200007462A68D9F80030A2EB0A0213444E49DC
:108D30005448C9F80030FEF7E3FE002FDAD198F866
:108D40000030002B7FF458AF2B687F2B7FF654AF99
:108D50004D4FDFF840B13868C0B928231B68B3F520
:108D6000C04F0ED209A8FEF7B9F80A9BC3F3074219
:108D70001B0E6FD0012B68D10A2A66D86AD14FF436
:108D80000370CBF8000006F0D5FF38604FF02809DB
:108D9000D9F800303868B3F5C04FDBF80010A9D21D
:108DA0009B6A98470028A5D1D9F80030B3F5C04F89
:108DB0001CD22A6806A8D7F800A00392FEF78EF806
:108DC000079B190E12D00129039A03D1C3F307435D
:108DD0000A2B0BD9282305A91B680091D3F83490DE
:108DE000284909AB5046C847002855D084245AE783
:108DF0004FF4817795E7002BA1D021492B680A68B1
:108E00001A440A60204A106828221268B2F5C04F3E
:108E100011D2D76A1D491B4AB84707462A6812492A
:108E20001848FEF76DFE40F203239F4206D101234E
:108E3000029A1370E0E640F20227EFE740F20123C6
:108E40009F423FF47CAF80242DE728231B689B6B57
:108E5000984796E74FF4C07093E700BF760B002069
:108E6000750B0020740B0020700B0020F80100200F
:108E7000EB17A603881500208C150020D4010020D4
:108E80007C0B002070070020900B0020800B00203E
:108E900044130020940B00209DF8243088F8003003
:108EA0000393FDF7B9FF039B814600284DD0D0F80E
:108EB00034A0002B3FF4A0AE00230693042310AA95
:108EC00002F82D3D06A93520FEF78AFF069BDB0739
:108ED0004DD598F80030082B39D05346BAF1000F21
:108EE00036D1B9F1000F45D14FF02809394BDFF8E1
:108EF000FC803868C8F80430D9F80030DBF800107E
:108F0000B3F5C04FBFF4F6AE9B6A984700287FF4D4
:108F1000F1AED9F800203868B2F5C04F2B6850D2B6
:108F2000D76A41462C4AB84707462A682B492A483F
:108F3000FEF7E6FD40F203239F423FF478AF40F294
:108F400001239F427FF47FAF56E68246B1E7244B70
:108F500010220CA903F12800039306F0F3FE20B9B8
:108F6000039B0A9A1B6A9A4201D889249BE6B9F1AD
:108F7000000F12D04FF400514846FDF793FF002830
:108F80007FF4B8AE2AF4FF504FF4005120F01F00D8
:108F9000FDF788FF00287FF4ADAE98F80030082B6D
:108FA000A2D1104B104A18684FF4005120F4FF531F
:108FB00023F01F031360FDF775FF00287FF49AAEBE
:108FC0001AE640F20227B0E7002415E60D2413E666
:108FD000812411E6197B000070070020700B00202F
:108FE00060FF00008815002044130020800B002043
:108FF0000048704700F04902430910B507D0012B23
:109000000FD00A4C0A4A022B14BF2346134600F025
:109010001F0041B103F58053012202FA00F01860ED
:1090200010BD044BF3E703F50053F5E76082004001
:109030006880004064800040FEE708B5FDF720FF2F
:10904000084B1B6F03F00703022B04D0032B06D041
:10905000012B02D0FEE704487047044870470448DB
:10906000704700BF00800040C0EA2101002D31019F
:1090700000F0490238B504461B4A1368D806FCD4F0
:109080004FF04023D3F88430C3F381139C4229D09E
:10909000FFF7D6FF012C054602D12146FDF70EF958
:1090A000EFF3108072B64FF00071104A4FF040237A
:1090B00011604FF48062611E8A401A675A6E9101F6
:1090C00003D4D3F88420920609D5FEF749FE022C7A
:1090D00008D12846BDE838400021FDF7EFB8D3F8A5
:1090E0008420EBE738BD00BF84400040646000404E
:1090F00008B5FFF7A5FF044B1B6FC3F30333013320
:10910000B0FBF3F008BD00BF00800040B0F5807FE9
:1091100008D0B0F5C07F03D080280DD1FFF790BFF5
:10912000FFF7E6BF084BD3F8403113F0030303D039
:10913000022B03D9032B04D0002070474FF40040CA
:1091400070474FF47A70704700800040044B054A26
:109150009A60D3F8882042F47002C3F888207047E0
:1091600000ED00E0006000004FF040232DE9804852
:10917000D3F89430ABB05F061BD44FF000530022FD
:1091800022A81A60FDF7AAFEFDF746FEC0B1446BA7
:10919000FFF7C2F9249B5E0740F12A84FDF73CFEED
:1091A00028231B68B3F5C04FC0F04E84FFF720F8AA
:1091B00006E04FF000531A68022ADED100221A603E
:1091C000BFF34F8FBFF36F8FB44AB548536AB54CA6
:1091D00023F480335362B44B84425A6822F0010274
:1091E0005A6008BF4FF08042196B1CBF20F01F026D
:1091F000203A21F0FF0141F0A001B2F1005F1963B4
:1092000009D3AA4DAA4E296842F0010299600131A2
:10921000DE601A61296084420CD0A448A54A016826
:1092200022F01F0242F003029960DA60A24A013183
:109230001A610160BFF34F8FBFF36F8F05225A6031
:10924000964A536A43F480335362BFF34F8FBFF3A0
:109250006F8F9A4B1B68C3F30743012B10D1984BB8
:109260004FF48022596E41F264004D034FF0040424
:1092700058BF42F264011A509248046058BF5A50D5
:1092800041F2040041F264054FF0004701244AF620
:10929000CD314FF040224FF0070E8B4B884E775167
:1092A0001C50D3F844C01964C2F83CE09A6822F01C
:1092B000740242F044029A6040F209121A6140F2CC
:1092C00003125A6177511C50586C1964DA6A1407FA
:1092D000FCD442F224022021995041F208020121DB
:1092E0009950794B1A46596A8906FCD5012804BF62
:1092F00076491964BCF1010F04BF744B1364704AC2
:10930000136F03F00703032B42D041F264034FF4C1
:109310000021D15045F60E026D4B0221C3F880208A
:1093200041F22802995042F22802012199509A6D87
:10933000D703FCD4674A68491A61684A9A611A6A75
:1093400022F00D021A629A6A22F0330242F0010200
:109350009A625F4A1346906D31EA0000FBD1022108
:1093600041F22800115011659A6D5600FCD41A691B
:109370004FF0004122F4700242F400121A6141F2EF
:109380001802995042F22802022199500121995065
:1093900041F264034FF40022494C0121E25041F2B2
:1093A00028024B4B02209D6A9950FFF763FE002173
:1093B0004B48FCF783FF236F4FF4803243F4806304
:1093C000236741F27003E250236F05F0020523F09A
:1093D000070343F003032367FFF78AFE414B196835
:1093E00011F01001FBD14FF04023D3F88430C3F3C8
:1093F0008113C3F10203002BC8BF0121FCF75EFFFC
:10940000FFF71EFE0220FFF735FE4FF4C070FFF796
:109410007DFE35492A4A884294BF00200120136FFF
:1094200023F4806343EA802313678020FFF76EFEF6
:109430002E4B98429EBF42F270034FF48031D150C0
:1094400025B942F228030121214AD15001213020BF
:10945000FFF7D2FD10231A4A254C93660123C2F868
:1094600080326360154B04251B6C2AAA23660023F7
:1094700002F88C5D09A935200993FEF7B1FC06239B
:109480008DF81B30099B8DF81A5013F4803FDFF8DC
:1094900064800BAD00F0E1822EE000BF00ED00E043
:1094A000BC0000200401002090ED00E02415002005
:1094B0000300002023010020E1FFFF3F0080E00FB8
:1094C0000080004020200140004009403254FFFF4E
:1094D00000C000402008B00B030001403C8C8C030E
:1094E00000B4C4048440004080F0FA02005A6202D2
:1094F00000C001A8E4010020236E8DF82C30236EFB
:109500008DF82D30236E8DF82E30236E8DF82F3090
:10951000236E8DF83030236E63F03F038DF83130C9
:109520009DF8323043F001038DF83230C8F8045012
:1095300000254FF48071C24BC24A5961C3E9002231
:109540009A601D82C04AC14B22AFC3E900229A60D3
:1095500059611822294638461D8206F0E2FB09238C
:109560008DF8893080238DF88B30B94B4FF001098D
:1095700023930F238DF89330B64B384625938DF8FF
:10958000909000F0A3FCB448B44B29460360B44B60
:10959000B44E436000F014FDA7A3D3E9002330606C
:1095A000CDE900234FF0FF334FF0FF3200F0C0FF52
:1095B00002224FF0FF31306800F0C7FFAA4BAB4CDE
:1095C0002293394603F5003330682495239300F045
:1095D000AFFD21463068257000F0E2FF28B121463A
:1095E000306884F8009000F0DBFF306801F06AF822
:1095F0002178B8F90020306800F078FC0146306826
:1096000000F0B8FFD8F80440DFF8E0A2002C40F0EA
:109610003E825046FCF77AFEB37B64F30003B373DB
:109620001022934B934C83F82123002183F82223AB
:1096300004F10A0083F8262383F8252383F82323E3
:1096400083F8202383F824235A2206F06AFB42F28F
:109650001073894DE360894B4FF49072C4E9005355
:109660002523637201233284854A4FF00009137069
:109670001B22844DDFF878822A802AAA02F8903DC6
:109680000DF119013E202372C8F80090FEF7A8FBE7
:1096900058B19DF8193039463068CDF88890C7F830
:1096A00004908DF88A3000F04DFF11232AAA02F8A9
:1096B000913D15A93620FEF793FB20232AAA02F834
:1096C000923D39463920FEF78BFB80BB6E4B9DF8EF
:1096D000172018681B7922903B71002A00F0E08166
:1096E0001B2A28BF1B22531D8DF8163015A9531CA9
:1096F0000DF18D008DF88B3006F008FB1AA8FCF7F1
:1097000005FE624A9DF8163012882AA9FA529A1C60
:1097100051FA82F200211A9802F8201CBDF86C1050
:10972000093342F81F0C22F81B1C8DF81630202339
:109730002AAA02F8933D1AA93A20FEF751FB48B92C
:10974000534B1A889B78ADF868208DF86A30032354
:109750008DF8153000224FF002094E4B4E48C3E9F8
:1097600000224E4B80F804900360FCF767FD4C48E4
:109770004C4B80F80490036010230372FDF73CFC0F
:1097800049484A4B80F804900360494B80F80890A0
:10979000C360A0F81090CDE900394B4690E8060070
:1097A0001430FCF727FD9DF81710002900F0868182
:1097B00015A84FF01009FDF749FC3E483E4B80F8D4
:1097C00004900360FCF73AFD3C483D4B4FF6FE7BAE
:1097D000036008233B4AA0F810B0C26080F80490F0
:1097E00003720393FDF708FC3748384AA0F810B01D
:1097F00002600C224FF0020B0272354A80F804908E
:10980000C260FDF7F9FB3348334A039B0260334AD9
:1098100080F80490C260038280F808B0FDF7ECFB8A
:109820002F48304B80F8049003602F4B80F808B02D
:10983000C3605FE0AFF3008008558028000000009F
:10984000B00C0020C80C0020B00B0020980B0020AA
:109850000CFF0000EAFE000078130020C57800002D
:109860006C130020481300203C00940012000020DC
:1098700000E100E02C010020D6BE898E5555550030
:10988000C80D0020D6010020A0FF0000AAFF0000A4
:10989000D2FE00003007002048150020ADFF000078
:1098A00070050020B0FF000044070020B3FF000057
:1098B000D6FE000068150020B6FF0000C805002095
:1098C000C7FF00002982000020060020D8FF00000A
:1098D000B58B000068040020E9FF000058FF00007D
:1098E00078060020FAFF00004C0001005013002011
:1098F0000804002001230382FDF77EFBB648B74B26
:1099000080F804900360B64B80F808B0C3604FF64F
:10991000FE730382FDF770FBB248B34B80F80490EE
:109920000360B24B80F808B0C3604FF6FE73038249
:10993000FDF762FBAE4BAF4A1A604FF6FF729A809A
:109940009DF81620202A05D8931D63753946AA482C
:1099500006F0DCF99DF81520202A06D8931D84F81E
:109960003D301AA9A54806F0D1F9FEF72DF8227C62
:10997000637C002A40F0A58043F001036374237DDB
:1099800062F30303B27B02F0010262F386132375D4
:10999000637D0BB906236375BAF80410984BB06861
:1099A000C4F816009980042194F83C3061F3030355
:1099B00062F3861384F83C3094F83D3013B90623E3
:1099C00084F83D30B068BAF804208E4BC4F83E00ED
:1099D0009A80FEF755F88C4C8C4B1B78002B40F08E
:1099E000B0808B4A136923F00403136130BFF3E79F
:1099F000002C3FF4DBABFDF7C7F98442BFF4D6ABD4
:109A0000FDF7C2F904F1400383423FF6CFAB204695
:109A1000FDF7E2F900283FF4C9AB636973B9FEF7BB
:109A2000E7FBFDF7F9F90446FDF7F6F9784B986086
:109A300023689D4663689847FFF7C2BB9DF888304E
:109A4000012BECD1FFF7AABB5B6A98470446FEF7EF
:109A5000CFFB002C3FF4B4ABE3E70DF11B0229462A
:109A60002C20FEF7BDF900283FF462AD0DF11A027B
:109A700008A93C20FEF7B4F99DF8323020B19DF8DA
:109A8000202062F300034FE560F300034CE52068FB
:109A9000B060A288A379AAF804208AF80630BFE54E
:109AA00008238DF8163004238DF88B30594B1A8813
:109AB0009B78ADF88D208DF88F301FE60321554837
:109AC00077E66FF3000359E7EFF3108672B60023D1
:109AD0000DF11D011A465048FDF77EFB3046FEF79A
:109AE0003FF99DF81D3013B10023C8F80030D8F8B5
:109AF0000020EFF3108672B6C2F501739BB22244C8
:109B00000DF11D014448FDF767FB03463046FEF7A3
:109B100027F9D8F8000018440328C8F8000010D925
:109B2000B4F8009009F1040398420AD306D860887B
:109B3000002704280BD0062800F09E810023C8F8D7
:109B400000303548FDF7A0F80028BDD149E722795B
:109B500009F1FF33082A6F809BB200F004811BD803
:109B6000042A2E4E5ED0062A73D0022A1BD1022B65
:109B700040F07E81B4F805700022B7F5007F28BF61
:109B80004FF400770323114602203370A6F80170CA
:109B9000FEF71AFB2F80D1E7102A00F0198104D8B4
:109BA0000A2A00F095800622B8E0122A00F0BF8051
:109BB000522AF8D1B4F80500FDF7B6F90028BDD057
:109BC000037B5B07BAD5A9F1030292B21449B4F83A
:109BD0000500FDF7F7F9B1E7C00400200B00010014
:109BE000096F0000100400201C0001002D7200000D
:109BF00038070020300700204801002070010020B5
:109C0000420100206A010020040200202C070020ED
:109C100000ED00E0A6FF0000980B0020DA01002014
:109C20000B020020042B79D1B4F80570B8B2FDF70F
:109C30007BF958B1027A4168022A0CBF0123022342
:109C4000052073703070778003205FE06F800A22F8
:109C500064E04FF00203DFF83CB2A9F10702B4F868
:109C60000500B4F8071092B28DF848300BF10203EA
:109C70000093CDF844B0019211AB0CCBFDF7E0FDA1
:109C80004FF6FF7A5045814604D16368C3F30F2332
:109C90006B80DCE74FF00203CDE900778DF83830B8
:109CA000CDF834B001300DAB0CCB514680B2FDF78E
:109CB000C7FD072350451CBF00F1FF3080B2337051
:109CC000A6F80190A6F803000022042011461DE02A
:109CD000022B40F0CD80B4F80500FDF725F90028EF
:109CE0003DD0037B990714D52B882AAA013B22F883
:109CF000803D11A9B4F80500FDF73EF9024648B9C8
:109D00000B21624BBDF8282019701199FEF75CFAFF
:109D100014E702226368C3F30F236B8001265B4BB9
:109D2000207969881E70587059801A71CCE7B4F890
:109D30000500FDF7F9F890B1037B1A0711D5A9F1D9
:109D4000030292B25249B4F80500FDF73BF902460E
:109D50000028DFD113214D4B19700146D6E70122AF
:109D6000D8E70322D6E7A9F1050B1FFA8BFBBBF15D
:109D7000020F02D0BBF1100F7CD1464BB4F80500A6
:109D8000B4F8071011930023CDE900338DF848B0E3
:109D900011AB0CCBFDF754FD4FF6FF73984206460E
:109DA0003FF473AF2B882AAA043B22F88A3D0AA904
:109DB000FDF7E2F8024608B16E80AFE70921334BA8
:109DC000BDF81E201970911C59705E800A993BE7FE
:109DD000A9F1050B1FFA8BFBBBF1020F02D0BBF1FF
:109DE000100F47D10027B4F80500B4F80710DFF8CA
:109DF000A4A0CDE900775FFA8BFBCDF844A08DF8E5
:109E000048B011AB0CCBFDF71BFD4FF6FF79484571
:109E100006463FF43AAFCDE90077CDF83CA08DF887
:109E200040B001300FAB0CCB494680B2FDF708FDC6
:109E300007462B8848452AAAA3F1060318BF00F15C
:109E4000FF3722F88A3D0AA9304618BFBFB2FDF796
:109E500093F802460028AFD111210C4BBDF81E200B
:109E60001970111D59705E809F800A9905204DE779
:109E7000042253E7024651E7074B11A9119302232D
:109E8000CDE913771293FEF777F957E6DA01002050
:109E90000B0200200D02002010000020FEE7000051
:109EA00008B5FFF753F9064A064B07498B4201D321
:109EB000FCF766F952F8040F43F8040BF6E700BF0D
:109EC000A43D0100100000200C01002038B504461C
:109ED000054D00F07BFB0FCC0FC594E8030085E82F
:109EE0000300002038BD00BF9418002047F6FF7320
:109EF0009A42F0B55ED002295ED8304BCE0013F8FE
:109F0000311098190129857819460DD1C3785B1B4A
:109F100023B1416831F91310914202DCE818C0B254
:109F2000F0BD013B1BB2F3E740680028F8D0B0F960
:109F30000030934204DBB0F902309342B8BF1346BD
:109F40008288FF2A19BFC8242827B0F90640B0F933
:109F50000870A4EB03040CBF0122002294FBF7F469
:109F600014448A19567824B2721EA242A8BF22460F
:109F70004FF47A7700EBC201CC888968013213FB79
:109F8000041112B221EAE17101F5FA71B242B1FB9A
:109F9000F7F104DA00EBC204A4888C42EAD200EBA9
:109FA000C20232F8040C884228BF0846A84238BFD3
:109FB0002846B4E7FF20B3E70020B1E7941800205B
:109FC00070B50E46044678B1084D2B7863B9084B3E
:109FD000186000F07FF83146204600F06BF8031C53
:109FE00018BF01232B7070BD0020FCE7B0180020C3
:109FF000AC1800200846114600F080B82DE9F8435F
:10A00000124D04460F46994601216B680020904688
:10A0100098470646C4B104F10C004B464246394607
:10A0200001F036FC044618B92B6801209847044615
:10A030003EB100F08BFB00B91CB100216B680846F3
:10A0400098472046BDE8F8832046E6E72400002034
:10A050002DE9F041114D04460F466B6801210020A7
:10A06000904698470646BCB104F10C00424639467A
:10A0700000F06FFA044618B92B680120984704468F
:10A080003EB100F063FB00B91CB100216B680846CB
:10A0900098472046BDE8F0812046E7E724000020ED
:10A0A0007047431E012B03D9031F58425841704784
:10A0B0000120704738B504460D46002100F058FADB
:10A0C0002946204601F072FA00280CBF20460020E5
:10A0D00038BD000010B5044600F050FC44B1054AFC
:10A0E000D4F88830002B08BF1346034A136010BD14
:10A0F000E36FFFDEA1A000001800002010B50C46A1
:10A1000000F05EFC1CB100F0B9FC0128FBD1BDE8F9
:10A110001040024B00215B680320184724000020F8
:10A1200000B10C3000F0DEBD00B10C3000F0F2BD2B
:10A130000B8810B43BB143F2C822934228BF1346A8
:10A14000642B38BF64230B804B883BB143F2C82299
:10A15000934228BF1346642B38BF64234B808B88FF
:10A160003BB143F2C822934228BF1346642B38BF49
:10A1700064238B80CB883BB143F2C822934228BF33
:10A180001346642B38BF642343F2C8240A89CB806A
:10A190004B89A24228BF2246A34228BF23460A81F8
:10A1A0004B8100B10C305DF8044B01F067BA000040
:10A1B0002DE9F04FDFF85C9183B004468B461746DB
:10A1C0008DF8073001F058FCB9F8005001F062FC3E
:10A1D000002869D14C4E636F326893425BD000F027
:10A1E0004DFC012835D1DFF830A1226FDAF80030BC
:10A1F000606F002B5ED093425FD01D6811680268CB
:10A200000DB18D4265D0204601F00CF900230546C2
:10A2100001270093D4F88480B8F1000F65D00022A4
:10A220000DF1070311462046C0476DB9D4E91C2340
:10A230003360009BCAF8002003B987B32046C9F8F1
:10A2400000B000F095FE054687B9284603B0BDE88A
:10A25000F08F012000F0B4FB00F010FC0128FBD1CE
:10A260002A4B00215B6803209847BCE7B5FA85F0CC
:10A270003321400900F004FA9DF80710204601F050
:10A28000EFF8234BA4F10C00616F1B689847284638
:10A2900003B0BDE8F08F002BA1D05D459FD1002514
:10A2A000284603B0BDE8F08F0023174E336001F05D
:10A2B000E9FB90E711680268A5E7316800299CD0A6
:10A2C00081429AD1B5EB0B0318BF012300250093FF
:10A2D000A0E7316811B10968914201D0596892E74D
:10A2E0000023012700931D4694E7617994F8BD305F
:10A2F0009DF80720994228BF1946204600F0D5FD59
:10A30000002DA1D192E700BFBC180020240000203E
:10A3100018000020B4180020B81800202DE9F04FD4
:10A32000074683B00E46FDF7A1FC7B6F814613B153
:10A330003B89B3424AD03B6F002B55D09C68002C20
:10A3400052D0D96800294FD0D7F884A0BAF1000FB5
:10A3500052D04FF00008A7F10C0B4046454600E0F4
:10A360009C6805EB450204EBC204E2890135B24268
:10A3700017D8228AB24214D3B4F91210B7F92201C5
:10A380000193884201EAE17217DD97F8B41058464C
:10A39000FFF7ACFD7A79804682420ED92046019BB8
:10A3A000D9688D42DCD338B901244846FDF7D8FC82
:10A3B000204603B0BDE8F08F04460023224619462C
:10A3C0003846D0473E817C6787F8BD800023314600
:10A3D0001A463846FFF7ECFE04464846FDF7C0FC37
:10A3E000204603B0BDE8F08F03244846FDF7B8FCD3
:10A3F000204603B0BDE8F08FD0465046554647F69C
:10A40000FF7BA7F10C0A0EE097F8B4105046FFF757
:10A410006DFD7A7980468242D4D92046019BD96865
:10A42000A94215D99C6805EB450204EBC204E289F8
:10A430000135B242F4D8228AB242F1D3B4F91210F3
:10A440000193594501EAE172DED14FF0FF08B9E707
:10A450000028A9D00446B5E7F8B50D1C18BF0125A2
:10A460000E46074600241F21284600F009F9304611
:10A4700002F01AF81F21284687F8C040C7E91C647B
:10A4800000F0FEF84FF6FF721820F168E3B28B423D
:10A490000BD3154600230A4A29461360094A384659
:10A4A0001360FFF73BFF2846F8BDB56800FB035378
:10A4B000DD89954202D2002DECD02A460134E5E731
:10A4C000B8180020BC180020008970470A7838B5F9
:10A4D00005461046FFF7E5FD60B14C782046FFF7D2
:10A4E000E0FD38B12243530704D42846BDE8384084
:10A4F00000F03EBC012038BD00B10C30FFF7E6BFD4
:10A5000010B504460878FFF7CCFD58B14A781046DC
:10A51000FFF7C7FD30B1042A04D02046BDE8104043
:10A5200000F04EBC012010BD00B10C30FFF7E8BFB9
:10A5300030B4DDE9024500B10C30CDE9024530BC54
:10A5400000F0C8B9084601F05DBC00B10C3000F065
:10A550003BBB70B504460D461646FFF7DFFE30B92B
:10A56000324629462046BDE8704000F0CFBA70BDA3
:10A5700001F098BA38B5044600200D4601F092FF6C
:10A580004CB1D4F890304BB9294604F10C00BDE829
:10A59000384000F0A9BCD4F88430FFDE022038BD7A
:10A5A00038B5044648880D4601F07CFF4CB1D4F81C
:10A5B00090304BB9294604F10C00BDE8384000F05A
:10A5C0002DBCD4F88430FFDE022038BD01F06BBF13
:10A5D00038B505460C46FDF749FBA9696B690C4087
:10A5E00023436B61FDF7BCFB00200CB9002138BD93
:10A5F0004FF48071FBE700B10C3000F05EBE00B19B
:10A600000C3000F077BE00004FF4007307B502AACB
:10A6100022F8023D0749FFF7F2FFBDF80630B3F517
:10A62000007F05D1022808BF002003B05DF804FBBD
:10A630000120FAE7C01800200846114600F066BD68
:10A6400000B10C3000F024BE38B5154658B100F109
:10A650000C0411B1204600F069FE35B12046BDE87A
:10A66000384000F0B5BE0446F3E738BD024B196030
:10A67000024B1860FEE700BF1C00002020000020F5
:10A6800008B528B9034B1960034B1868FFF7EEFFB4
:10A6900008BD00BF1C000020AC180020034618B104
:10A6A0005B7B0C3013B108475B78FFDE02207047FC
:10A6B00010B5044601F07CFA2046BDE810400321A5
:10A6C00000F068B900B10C30FFF7F2BF0149FFF7A5
:10A6D000E5BF00BF89BB00000149FFF7DFBF00BF36
:10A6E00061BB000070B5437806460C46B3B101F07B
:10A6F0008DFA616802460546304601F08FFA2068FF
:10A7000090FAA0F0000A00F087FBA17A20892A467F
:10A7100081F0010101F0E6FA002070BD0220FCE7A3
:10A720001FB500B10C30ADF80C309DF81830CDE9F4
:10A73000011201A98DF80E30FFF7D4FF05B05DF8C6
:10A7400004FB00207047002070470000014B187880
:10A75000704700BFC01A0020024BD868C0F30360E6
:10A76000704700BF000002A87047000038B16FF0CA
:10A77000FF02034B10401A60A3F580531860704726
:10A7800024E000A8C2690F4B02F06002402A12D0F8
:10A79000602A04D0202A12D10122DA6107E071B1C7
:10A7A0000A68012A0BD94A6942F00102DA61802263
:10A7B000054B1A61704740F20112DA61F7E7002297
:10A7C000DA61F4E7683F00B0000002A800F0180367
:10A7D000182B084B02D100221A627047010702D5DC
:10A7E00001221A627047C206F5D540F201121A62C0
:10A7F000704700BF683F00B0154B1B68DB071CD5D6
:10A80000144B1878144B40F08072C3F8CC204FF4EE
:10A81000801212490A60A1F6FC710A60D3F8CC20BC
:10A82000AAB1D3F80C31DBB2FF2B0ED0984294BF03
:10A83000002001203C21FFF723BF094B93F847007C
:10A840000028DFD093F84400DCE70120F2E77047EE
:10A85000EC3E00B0603F00B0004000A8B46000A82B
:10A86000183F00B037B50C46174D39B90A460721D5
:10A8700004F068FCC5E9004403B030BD072211466E
:10A8800004F060FC0722114B02A81A602379012111
:10A890002B70637940F8043D04F070FC019BC2B258
:10A8A000D34000F00F0040EA03106870A379084A13
:10A8B000AB70E379EB7023686B602379013313622B
:10A8C000FFF79AFFD8E700BF603F00B00C6000A818
:10A8D000004000A82DE9F34BDDE90ABCD0E9368938
:10A8E000044689EA0C0188EA0B0000EA020501EA45
:10A8F000030685EA080086EA090100254FF00008F2
:10A9000040F20119C4E9360122F001000BEA000609
:10A910000CEA03071946CDE9005549EA070348EA5E
:10A92000060203F07FFA2378DB0720D5D4E936232B
:10A93000002003F4807150EA010318D04FF48031F5
:10A940002046FFF745FE237865F300032370D4E922
:10A95000362302EA000503EA010655EA060306D09B
:10A9600005492A4609683346A4F10C0088470020AF
:10A9700002B0BDE8F08B00BF2C000020034A036842
:10A98000002B08BF1346024A1360704769A70000F6
:10A990002C00002031F00F0003BF054A01F00F0129
:10A9A000D368012002BF23F00F030B43D36070472D
:10A9B000683F00B0014B002019617047683F00B04C
:10A9C0002DE9F34103284BD8DFE800F046023E4270
:10A9D000002401262546FDF749F9074603F00AFC45
:10A9E000804640B100230022CDE90033012000233E
:10A9F000002103F017FA2946304603F095FD224660
:10AA00002946304603F00CFEB8F1000F16D0164B65
:10AA10001B6803B10C33154A126C520208D4DB696F
:10AA200013F0800F4FF4001314BF114A114A136042
:10AA300011490868FFF79AFE00230B60384602B000
:10AA4000BDE8F041FDF78CB9012500242E46C2E790
:10AA5000012425462646BEE7002425462646BAE7B9
:10AA600002B0BDE8F08100BFAC180020000002A8D1
:10AA7000205001A8206001A8E81A002008B5FFF7BF
:10AA80006BFE01380B280DD8DFE800F01414061413
:10AA9000141414080A080808032008BD0420FCE761
:10AAA0000520FAE7044B5B6913F0060F14BF04207E
:10AAB0000120F2E70220F0E700C001A8034B1B6C65
:10AAC00013F0A00F0CBF012000207047000002A867
:10AAD00010B50246FFF7D2FF012813D1C1F1590486
:10AAE0007F2C0EDC9170FDF7C1F8074AE402136A6F
:10AAF00004F4FF2423F4FF231C431462FDF730F910
:10AB0000002010BD0220FCE700C000A8114603F0A1
:10AB1000BBBB00000138C0B202284FF060518EBFAD
:10AB200000220D4B53F820200C4B00201960A3F598
:10AB300080531A604FF400124FF080511A60084A97
:10AB4000936F23F0060343F004039367054B1960EA
:10AB50000423C2F88C30704788000100206001A8EF
:10AB6000004000A84C1002A8114B1B7813B106221C
:10AB7000104B1A600022104BC3F88C204FF080520B
:10AB800003F5F0334C331A600C4B1B6C13F4800F3D
:10AB90000B4B08D1C26912F0800F4FF4001216BFA0
:10ABA00008491A600A604FF0605200201A6070472E
:10ABB000C81A0020786000A8004000A8000002A881
:10ABC000206001A8205001A870B51546C26906464C
:10ABD00082EA05030B405340C36108070C4606D5C3
:10ABE000082315F0080F14BF334A344A1360E107F5
:10ABF00006D5012315F0010F14BF2F4A2F4A136009
:10AC000062070CD503F078FC4FF4007315F0040FC5
:10AC100014BF2B4A2B4A136004222B4B1A60A30744
:10AC200006D5022315F0020F14BF234A234A1360EE
:10AC3000E00606D515F0100F14BF00221B22234B8F
:10AC40005A6521061ED52A0625D54FF40012204B41
:10AC50001A60012203F587531A60FDF707F80146D1
:10AC6000FFF77AFD032806D11A4AD36823F0F003D0
:10AC700043F0E003D36040F20122144B0846DA624D
:10AC8000FDF76EF814F0600F03D0B16F3046FFF798
:10AC900079FD002070BD104B1B6C5B02F2D44FF4A9
:10ACA000001196F890300D4A1160002BEAD0012275
:10ACB0000B4B1A60E6E700BF4C5000A84C6000A8A0
:10ACC000245001A8246001A8402002A8004000A848
:10ACD000205001A8683F00B0000002A8206001A831
:10ACE000005101A8014B186A02F024BB004001A8E2
:10ACF000836F53B11A68022A07D9586AC0F3072034
:10AD000030B11B6AB3FBF0F070470C38FFF708BA9C
:10AD100070470000014B186A02F034BB004001A8E4
:10AD2000826F62B11368022B09D9536AC3F30720FB
:10AD300040B1126ADBB25343B3FBF0F070470C38FA
:10AD4000FFF7F2B970470000064BD3F838311B0407
:10AD500001D4FFF7E5BF0A78034B0448012A18BF66
:10AD600018467047004001A820A1070048E80100EC
:10AD7000F8B5114D0F784C782E68FCF777FF024636
:10AD80000E49FFF7E9FC0B2808D00C2801D0092850
:10AD900007D11046FCF7E4FF0220F8BD0B6CDB0383
:10ADA000EFD42406B3B244EA07441C4310462C6097
:10ADB000FCF7D6FF0020F0E7143F00B0000002A827
:10ADC000F8B5134E0C784F783568FCF74FFF024604
:10ADD0001049FFF7C1FC033804280DD8DFE800F064
:10ADE000030C030308001046FCF7BAFF0220F8BD6D
:10ADF000D1F84431002BECD12B0C1B041C4344EA4A
:10AE0000072410463460FCF7ABFF0020EFE700BFDB
:10AE1000143F00B0000002A802F012BBF8B50D7894
:10AE20000446022D0E4690F8B47009D1002001F0BE
:10AE30004FFBC0BB012001F04BFB002818BF0125D0
:10AE40007388A4F8B630B38884F8B450A4F8B83046
:10AE5000B38804F1B406C4F83431FF233046A3713B
:10AE600001F046FB0546E0B9304601F027FB0546F8
:10AE7000B8B9636F5BB194F8B410B94207D0B3F9B5
:10AE80001220A4F10C00FFF731F884F8BD00204631
:10AE900001F09EFB0121A4F8B80004F1880002F043
:10AEA0009DFD2846F8BD0025CAE738B5054690F84F
:10AEB000B4000C46032813D0FF2913D001F07AFB0D
:10AEC000A04204D895F8B40001F074FB0446AC71BC
:10AED000204601F081FCA0F1FF035842584138BDE3
:10AEE0000220FCE70120FAE738B590F8B4300446B8
:10AEF000032B38D0456F417195B3D0F884301BB91E
:10AF000090F8BD308B4205D3B4F92221B5F9123047
:10AF10009A4211DD002294F8BD102046FFF7C5FFCC
:10AF20000546D8B960672046FFF7CEFA01462046AD
:10AF3000BDE83840FFF7F2B900222046FFF7B5FF21
:10AF4000054658B9094B1B78012B07D8204601F05C
:10AF50003FFB012104F1880002F040FD284638BD86
:10AF6000FF238371FAE70225F8E700BF3A000020CB
:10AF70002DE93048436A88B0012B65D004464A4920
:10AF800001F0C2FF0122616F23898D898DF80A20AB
:10AF90005B1B9BB2D1E9011505FB0311434DA06773
:10AFA0002D68ADF80830A842019118D058B1036857
:10AFB0004BB103693BB19968D3E90023C4F89410FD
:10AFC000C4E9222304E00023C4E92233C4F8943006
:10AFD00001462046FFF7D6FB01999DF80A2003ABF6
:10AFE000204602F079FA50BB314AFFF7B5FB013831
:10AFF0000B28FAD9536913F0060FF6D12D4A2E49C2
:10B00000136CDD01FCD40B6CD807F9D403A901A89B
:10B0100002F002FC054690B92378284960F300034A
:10B02000626F23700B68526911685A1C11D0481C5A
:10B030001ED08B1C04D0204600F0A8FE00E00225A4
:10B04000284608B0BDE830880025284608B0BDE88D
:10B0500030884A1CEDD1D4E93623002003F48071F6
:10B0600050EA010309D1237843F001032370E7E795
:10B070001946204600F08AFEEDE74FF48031204665
:10B08000FFF7A6FAD4E9362302EA000B03EA010C23
:10B090005BEA0C03D4D00A495A466346A4F10C007B
:10B0A00009688847CCE700BFFC4F00B0D41A0020E5
:10B0B00000C001A8000002A800C002A848000020AB
:10B0C0002C0000204FF4807104F04EB838B590F891
:10B0D000C0400546A4B1FCF7C9FD1F22094B013C45
:10B0E0001A601440A3F580531C60D5F8C420064BA9
:10B0F0009A66D5F8C820DA66BDE83840FCF730BE5D
:10B1000038BD00BF246001A8004001A837B50DF18B
:10B1100006020D4601F008F9044688B185B12B7886
:10B1200013F0F70F0CD0FCF7A1FD074BBDF806207C
:10B130001C60064B1A806A88054B1A80FCF710FECB
:10B14000204603B030BD00BFCC1A0020D01A00202A
:10B15000CA1A00202DE9F74306461546084619B9D4
:10B16000012003B0BDE8F083002AF9D0032905D8F7
:10B170000022114601F0D8F80028F1D00388827827
:10B180001C0402F007017CD4A1F1070C077990F8A8
:10B190000580C488DCF1000040EB0C000529287311
:10B1A00094BF0020C2F300106873C2F380102874AB
:10B1B000C2F3C000C2F340126874AA7467BB96F869
:10B1C000AE20013AEA74F269D20654D40639012954
:10B1D00051D82D4A063B526D9BB2062269462B4838
:10B1E00000F011FFE3049DF9007018D49DF80100F0
:10B1F0004400E0B2D6F880300BB139469847E87386
:10B20000AF736A7CDDF80210304602F001FD0623C0
:10B2100028602B720020A4E7013FEF74D3E7B36FDF
:10B22000C4F30B04E40093B11A68022A0FD95B6AD5
:10B2300013F0FF0301D0B4FBF3F4A04517D8C4B159
:10B24000C8EB0828B8FBF4F4E443E0B2D2E7304698
:10B25000FFF74EFD05F1110181463046FFF774FD01
:10B260000028EAD009FB04F4B4FBF0F4E5E7002081
:10B27000C0E72046BEE7002080232860EB812872CB
:10B280006FE702206DE700BF004000A84C0000AA55
:10B29000F8B506461446177AFFF75CFF054650B925
:10B2A000237A43B104F1110127723046FFF74CFDB8
:10B2B000214602F079FC2846F8BD0846114610F0F8
:10B2C000030210B514D1B3FA83F3192B05D0C3F1DF
:10B2D0001902D2B2062A28BF06220124931D9C40DF
:10B2E000A4B2A14228BF214600F022FE204610BD94
:10B2F0000124FBE7084611F0030110B514D11388AF
:10B300003F2B11D9B3FA83F3192B05D0C3F11901DF
:10B31000C9B2062928BF062101238C1DA340138032
:10B3200000F024FE002010BD0120FCE701214FF0B9
:10B330002A43084AD3F8183191624FF4005102F5BC
:10B34000005224325B07116042BF0422024B1A6094
:10B35000704700BF0C0000AA181100AA38B54B783E
:10B3600005460C46DBB9FFF7FFFBA378DBB940F6D7
:10B37000FF72144B5A62E378CBB940F6FF72124B5E
:10B380005A62602203F17E4303F5A0431A60402213
:10B3900003F5E73303F5FA731A60002038BD184649
:10B3A000FFF7B8FBE1E72846FFF7C0FFE3E76022BD
:10B3B000064B1A60402203F5D73303F5FA731A607F
:10B3C000EBE700BF0C0000AA4C0000AA4C6000A8EC
:10B3D00038B54FF02A434FF480640020D3F8185159
:10B3E00003F5045318331C60064B186003F0EAF8A9
:10B3F0004FF40052044B1A606A0544BFA3F6587319
:10B400001C6038BDCC1A0020702000AA082310B19F
:10B41000024A13607047024A13607047401002A846
:10B42000402002A80C4B10B5084614460B49D3F82F
:10B4300004210A60D3F808214A604FF44071C3F830
:10B440000411C3F80811012101F0FEFE204601217C
:10B4500001F0FAFE002010BD004000A8E01A002014
:10B46000F8B504464FF48060414B424AA56F18601E
:10B47000D2F804310F46B3F5407F0BBF3E4B3F4A35
:10B480001B68C3F381230CBFC2F804311370394A1F
:10B49000A189D2F80831B3F5407F0BBF364B374A4C
:10B4A0005B68C3F3812314BF5370C2F808314FF6B1
:10B4B000FF73994204D0324B1B680BB1204698476A
:10B4C000304E3368AB424AD02F4B1B6833B1002D4E
:10B4D00047D0296801B1A96820469847A36F13B1E6
:10B4E0001A68022A17D8A4F10C00FEF71DFE02F01C
:10B4F000E7F90725204601F06BF857B31D4BD3F849
:10B50000CC20A2B906200122A46F2049204B346030
:10B5100008601A70F8BD5A6AC2F307200028E6D006
:10B520001B6AD2B202FB03F2B2FBF0F0DFE7D3F802
:10B530000C0103F10063C0B2E83BFF2893F84430EC
:10B5400013D098422CBF002001203C21FFF798F82F
:10B55000D8E7294604F1880002F040FACEE7012539
:10B56000C8E7294620469847B8E70120EDE700BF25
:10B570004C2002A8004000A8E01A0020D81A0020A1
:10B58000DC1A0020D41A0020C41A0020786000A819
:10B59000C81A002008B548220021034804F0C1FB66
:10B5A000BDE80840FFF728B9183F00B02DE9F34186
:10B5B00088460446002859D04FF064120323C0E99E
:10B5C0002A22C0F8B020FF2280F8C0304FF6FF7367
:10B5D0008274284A4FF0FF37C374A0F82A311380D1
:10B5E0004FF04023C0F840714774D3F8843000F125
:10B5F0000C0603F0C003802B078335D1304602F0E0
:10B6000001FE3046FFF7C6FF60221B4B04F5A67112
:10B61000DA643046FFF7A2FEA26A05463946304694
:10B62000FFF7D2FA0E230022CDE9003340F20113D6
:10B630001046194602F0F6FB00F096FF85B9204649
:10B64000FEF7E2FF054658B994F90E103046FFF7B1
:10B650003FFA0546B8F1000F02D008B92046C047AE
:10B66000284602B0BDE8F0810225F9E784F8B4006D
:10B67000FFDE00BFEC1A0020004000A8B0F8B83090
:10B680008A88643310B59BB2CC889A4238BF1A4678
:10B69000A34238BF23468A80CB800C88A0F8A03014
:10B6A0004B88A0F89C40A0F8A4300B89A0F8A220F9
:10B6B000A0F898304B8988304382072102F08EF938
:10B6C000002010BD4FF6FF72B0F81E31934211D02A
:10B6D000094A0A49526E100CC2F301120132B3FB3F
:10B6E000F2F30880064A074907481B040860136004
:10B6F0000020704703207047004001A8EC1A00208A
:10B70000645001A8646001A80000FFFFF7B505467A
:10B710000E461446FFF7D2F9002800F09D804FF442
:10B720000061284603F020FD38B14FF4007201217A
:10B730004A4B08461A60FEF7E1FC31462846FEF700
:10B74000EDFD0646002870D12B789B0601D4002C15
:10B7500044D04FF44062424B1A6014F0020204D10C
:10B76000404B41491B789B020B604FF440613F4BBB
:10B77000196022B93B4B3E4A5B789B02136002F092
:10B78000BBFE4FF4806314F0040F14BF394A3A4AE9
:10B79000324F13600422402314F0400F3A6014BF6C
:10B7A000364A374A20461360FFF710F82846FFF75D
:10B7B00089FC38B14FF4807314F0010F16BF314A81
:10B7C0003B601360A70602D52846FFF77BFF0034D5
:10B7D00018BF01242B7864F345132B70284600F022
:10B7E00069F9F8B12846FFF76DFCD8B14FF4003184
:10B7F000284603F0B9FC00280CBF012302230322D2
:10B8000001A9214800F0FFFB9DF804101F4A01F038
:10B810000703052B9DF8053012D1080708D443F41F
:10B8200080735360002000F03DFE304603B0F0BD51
:10B8300059070BD49DF8063043F480735360F1E749
:10B8400003F03001202904D1DB07F3D54FF48073D6
:10B85000F4E79DF80630F1E70226E6E7402002A86B
:10B86000046100A8D81A0020045100A8086100A8AB
:10B87000085100A8245001A8246001A888D000A87D
:10B8800088E000A8401002A80C0000AAF43E00B016
:10B8900073B506461D46FFF739FF044688B995E89B
:10B8A00003006A4682E803009DF80430B6F8A2104F
:10B8B000012B034607D1884205D20094104602F0BE
:10B8C000CFFD02B070BD5B1A0093F7E74FF6FF7132
:10B8D000084A10B513888B4209D00748074C1B044F
:10B8E0000460A0F5805003600020118010BD03208B
:10B8F000FCE700BFEC1A0020646001A80000FFFF15
:10B90000504B2DE9F3471C6881468A46154604B121
:10B910000C34012040F2011100EA090201EA0A0395
:10B9200013434BD000220AF00103134309D0464BC6
:10B930001B6803F07F43B3F1007F02BF0222434B39
:10B940001A60002309F00102134328D04FF00008C9
:10B950000022002300210120CDE9008802F062FAD4
:10B96000012001F031FD414660810120FEF7C6FB58
:10B97000374B1B6C5A0208D4E36913F0800F4FF465
:10B98000001314BF334A344A136034490868FEF781
:10B99000EDFE00230B60237843F0040323700022A4
:10B9A0000AF48073134309D001212046FEF710FEEC
:10B9B0002AF4807749EA000947EA010AD4E93623E4
:10B9C00009EA02000AEA030102460B46134306464F
:10B9D0000F4617D0224BA4F10C0019683B4688474C
:10B9E000002306F0080213431CBF00221D4B06F083
:10B9F000FF4607F0110718BF1A6056EA070301D087
:10BA0000FFF764FFEB070FD51749184A08680021B4
:10BA1000136811600121164A117003B19847154B44
:10BA200000215B680220984715F00E0F06D03B21DD
:10BA3000002002B0BDE8F047FEF722BE02B0BDE82C
:10BA4000F08700BFAC180020143F00B0081002A817
:10BA5000000002A8205001A8206001A8E81A0020D8
:10BA60002C000020CC1A0020F41A0020F01A00202C
:10BA7000EE1A002024000020014BD3F84C3170470F
:10BA80000080E00F4FF40022014B1A60704700BFA6
:10BA9000402002A8024B186CC0F3C040704700BFA2
:10BAA000000002A8014B024A1A607047C41A002025
:10BAB00065A80000802103F057BB000047F6FE7325
:10BAC00010B5144C11F0010F2360C46A03EA44035B
:10BAD000114C23604FF00F04104B1C60A3F58053F2
